{
	"data": {
		"bytecode": {
			"linkReferences": {},
			"object": "6080604052606460075569010f0cf064dd592000006008553480156200002457600080fd5b506040518060400160405280601081526020017f42726f776e486f75736520546f6b656e000000000000000000000000000000008152506040518060400160405280600381526020017f42485400000000000000000000000000000000000000000000000000000000008152508160039081620000a29190620005c6565b508060049081620000b49190620005c6565b5050506001600581905550620000df620000d36200010760201b60201c565b6200010f60201b60201c565b600069d3c21bcecceda10000009050620001003382620001d560201b60201c565b50620007c8565b600033905090565b6000600660009054906101000a900473ffffffffffffffffffffffffffffffffffffffff16905081600660006101000a81548173ffffffffffffffffffffffffffffffffffffffff021916908373ffffffffffffffffffffffffffffffffffffffff1602179055508173ffffffffffffffffffffffffffffffffffffffff168173ffffffffffffffffffffffffffffffffffffffff167f8be0079c531659141344cd1fd0a4f28419497f9722a3daafe3b4186f6b6457e060405160405180910390a35050565b600073ffffffffffffffffffffffffffffffffffffffff168273ffffffffffffffffffffffffffffffffffffffff160362000247576040517f08c379a00000000000000000000000000000000000000000000000000000000081526004016200023e906200070e565b60405180910390fd5b6200025b600083836200034260201b60201c565b80600260008282546200026f91906200075f565b92505081905550806000808473ffffffffffffffffffffffffffffffffffffffff1673ffffffffffffffffffffffffffffffffffffffff168152602001908152602001600020600082825401925050819055508173ffffffffffffffffffffffffffffffffffffffff16600073ffffffffffffffffffffffffffffffffffffffff167fddf252ad1be2c89b69c2b068fc378daa952ba7f163c4a11628f55a4df523b3ef83604051620003229190620007ab565b60405180910390a36200033e600083836200034760201b60201c565b5050565b505050565b505050565b600081519050919050565b7f4e487b7100000000000000000000000000000000000000000000000000000000600052604160045260246000fd5b7f4e487b7100000000000000000000000000000000000000000000000000000000600052602260045260246000fd5b60006002820490506001821680620003ce57607f821691505b602082108103620003e457620003e362000386565b5b50919050565b60008190508160005260206000209050919050565b60006020601f8301049050919050565b600082821b905092915050565b6000600883026200044e7fffffffffffffffffffffffffffffffffffffffffffffffffffffffffffffffff826200040f565b6200045a86836200040f565b95508019841693508086168417925050509392505050565b6000819050919050565b6000819050919050565b6000620004a7620004a16200049b8462000472565b6200047c565b62000472565b9050919050565b6000819050919050565b620004c38362000486565b620004db620004d282620004ae565b8484546200041c565b825550505050565b600090565b620004f2620004e3565b620004ff818484620004b8565b505050565b5b8181101562000527576200051b600082620004e8565b60018101905062000505565b5050565b601f82111562000576576200054081620003ea565b6200054b84620003ff565b810160208510156200055b578190505b620005736200056a85620003ff565b83018262000504565b50505b505050565b600082821c905092915050565b60006200059b600019846008026200057b565b1980831691505092915050565b6000620005b6838362000588565b9150826002028217905092915050565b620005d1826200034c565b67ffffffffffffffff811115620005ed57620005ec62000357565b5b620005f98254620003b5565b620006068282856200052b565b600060209050601f8311600181146200063e576000841562000629578287015190505b620006358582620005a8565b865550620006a5565b601f1984166200064e86620003ea565b60005b82811015620006785784890151825560018201915060208501945060208101905062000651565b8683101562000698578489015162000694601f89168262000588565b8355505b6001600288020188555050505b505050505050565b600082825260208201905092915050565b7f45524332303a206d696e7420746f20746865207a65726f206164647265737300600082015250565b6000620006f6601f83620006ad565b91506200070382620006be565b602082019050919050565b600060208201905081810360008301526200072981620006e7565b9050919050565b7f4e487b7100000000000000000000000000000000000000000000000000000000600052601160045260246000fd5b60006200076c8262000472565b9150620007798362000472565b925082820190508082111562000794576200079362000730565b5b92915050565b620007a58162000472565b82525050565b6000602082019050620007c260008301846200079a565b92915050565b6121ea80620007d86000396000f3fe6080604052600436106101815760003560e01c806364edfbf0116100d157806395d89b411161008a578063c8bdbfb611610064578063c8bdbfb61461057b578063db068e0e14610592578063dd62ed3e146105bb578063f2fde38b146105f857610181565b806395d89b41146104d6578063a457c2d714610501578063a9059cbb1461053e57610181565b806364edfbf01461040b57806367d398b11461041557806370a082311461042c578063715018a6146104695780638da5cb5b14610480578063946807fd146104ab57610181565b806323b872dd1161013e5780633950935111610118578063395093511461033d5780634210830d1461037a57806344c4dcc1146103a557806345e313aa146103e257610181565b806323b872dd146102aa57806324f3772c146102e7578063313ce5671461031257610181565b806306c933d81461018657806306fdde03146101c3578063095ea7b3146101ee5780630d392cd91461022b578063171ef0b21461025457806318160ddd1461027f575b600080fd5b34801561019257600080fd5b506101ad60048036038101906101a8919061160f565b610621565b6040516101ba9190611657565b60405180910390f35b3480156101cf57600080fd5b506101d8610641565b6040516101e59190611702565b60405180910390f35b3480156101fa57600080fd5b506102156004803603810190610210919061175a565b6106d3565b6040516102229190611657565b60405180910390f35b34801561023757600080fd5b50610252600480360381019061024d91906117c6565b6106f6565b005b34801561026057600080fd5b506102696107a7565b6040516102769190611815565b60405180910390f35b34801561028b57600080fd5b506102946107ad565b6040516102a19190611815565b60405180910390f35b3480156102b657600080fd5b506102d160048036038101906102cc9190611830565b6107b7565b6040516102de9190611657565b60405180910390f35b3480156102f357600080fd5b506102fc6107e6565b6040516103099190611815565b60405180910390f35b34801561031e57600080fd5b506103276107ec565b604051610334919061189f565b60405180910390f35b34801561034957600080fd5b50610364600480360381019061035f919061175a565b6107f5565b6040516103719190611657565b60405180910390f35b34801561038657600080fd5b5061038f61082c565b60405161039c9190611815565b60405180910390f35b3480156103b157600080fd5b506103cc60048036038101906103c7919061160f565b610842565b6040516103d99190611815565b60405180910390f35b3480156103ee57600080fd5b50610409600480360381019061040491906118ba565b61085a565b005b61041361086c565b005b34801561042157600080fd5b5061042a610b0c565b005b34801561043857600080fd5b50610453600480360381019061044e919061160f565b610bb1565b6040516104609190611815565b60405180910390f35b34801561047557600080fd5b5061047e610bf9565b005b34801561048c57600080fd5b50610495610c0d565b6040516104a291906118f6565b60405180910390f35b3480156104b757600080fd5b506104c0610c37565b6040516104cd9190611815565b60405180910390f35b3480156104e257600080fd5b506104eb610c3f565b6040516104f89190611702565b60405180910390f35b34801561050d57600080fd5b506105286004803603810190610523919061175a565b610cd1565b6040516105359190611657565b60405180910390f35b34801561054a57600080fd5b506105656004803603810190610560919061175a565b610d48565b6040516105729190611657565b60405180910390f35b34801561058757600080fd5b50610590610d6b565b005b34801561059e57600080fd5b506105b960048036038101906105b491906118ba565b610dea565b005b3480156105c757600080fd5b506105e260048036038101906105dd9190611911565b610dfc565b6040516105ef9190611815565b60405180910390f35b34801561060457600080fd5b5061061f600480360381019061061a919061160f565b610e83565b005b600a6020528060005260406000206000915054906101000a900460ff1681565b60606003805461065090611980565b80601f016020809104026020016040519081016040528092919081815260200182805461067c90611980565b80156106c95780601f1061069e576101008083540402835291602001916106c9565b820191906000526020600020905b8154815290600101906020018083116106ac57829003601f168201915b5050505050905090565b6000806106de610f06565b90506106eb818585610f0e565b600191505092915050565b6106fe6110d7565b80600a60008473ffffffffffffffffffffffffffffffffffffffff1673ffffffffffffffffffffffffffffffffffffffff16815260200190815260200160002060006101000a81548160ff0219169083151502179055508173ffffffffffffffffffffffffffffffffffffffff167ff93f9a76c1bf3444d22400a00cb9fe990e6abe9dbb333fda48859cfee864543d8260405161079b9190611657565b60405180910390a25050565b60075481565b6000600254905090565b6000806107c2610f06565b90506107cf858285611155565b6107da8585856111e1565b60019150509392505050565b60085481565b60006012905090565b600080610800610f06565b90506108218185856108128589610dfc565b61081c91906119e0565b610f0e565b600191505092915050565b62093a80636451040361083f91906119e0565b81565b60096020528060005260406000206000915090505481565b6108626110d7565b8060088190555050565b63645104034210158015610892575062093a80636451040361088e91906119e0565b4211155b6108d1576040517f08c379a00000000000000000000000000000000000000000000000000000000081526004016108c890611a60565b60405180910390fd5b600a60003373ffffffffffffffffffffffffffffffffffffffff1673ffffffffffffffffffffffffffffffffffffffff16815260200190815260200160002060009054906101000a900460ff1661095d576040517f08c379a000000000000000000000000000000000000000000000000000000000815260040161095490611acc565b60405180910390fd5b610965611457565b600034116109a8576040517f08c379a000000000000000000000000000000000000000000000000000000000815260040161099f90611b38565b60405180910390fd5b60006109bf600754346114a690919063ffffffff16565b90506000610a1582600960003373ffffffffffffffffffffffffffffffffffffffff1673ffffffffffffffffffffffffffffffffffffffff168152602001908152602001600020546114bc90919063ffffffff16565b9050600854811115610a5c576040517f08c379a0000000000000000000000000000000000000000000000000000000008152600401610a5390611ba4565b60405180910390fd5b80600960003373ffffffffffffffffffffffffffffffffffffffff1673ffffffffffffffffffffffffffffffffffffffff16815260200190815260200160002081905550610ab2610aab610c0d565b33846111e1565b610aba610c0d565b73ffffffffffffffffffffffffffffffffffffffff166108fc349081150290604051600060405180830381858888f19350505050158015610aff573d6000803e3d6000fd5b505050610b0a6114d2565b565b610b146110d7565b62093a806364510403610b2791906119e0565b4211610b68576040517f08c379a0000000000000000000000000000000000000000000000000000000008152600401610b5f90611c10565b60405180910390fd5b3373ffffffffffffffffffffffffffffffffffffffff166108fc479081150290604051600060405180830381858888f19350505050158015610bae573d6000803e3d6000fd5b50565b60008060008373ffffffffffffffffffffffffffffffffffffffff1673ffffffffffffffffffffffffffffffffffffffff168152602001908152602001600020549050919050565b610c016110d7565b610c0b60006114dc565b565b6000600660009054906101000a900473ffffffffffffffffffffffffffffffffffffffff16905090565b636451040381565b606060048054610c4e90611980565b80601f0160208091040260200160405190810160405280929190818152602001828054610c7a90611980565b8015610cc75780601f10610c9c57610100808354040283529160200191610cc7565b820191906000526020600020905b815481529060010190602001808311610caa57829003601f168201915b5050505050905090565b600080610cdc610f06565b90506000610cea8286610dfc565b905083811015610d2f576040517f08c379a0000000000000000000000000000000000000000000000000000000008152600401610d2690611ca2565b60405180910390fd5b610d3c8286868403610f0e565b60019250505092915050565b600080610d53610f06565b9050610d608185856111e1565b600191505092915050565b610d736110d7565b62093a806364510403610d8691906119e0565b4211610dc7576040517f08c379a0000000000000000000000000000000000000000000000000000000008152600401610dbe90611c10565b60405180910390fd5b610de8610dd2610c0d565b33610de3610dde610c0d565b610bb1565b6111e1565b565b610df26110d7565b8060078190555050565b6000600160008473ffffffffffffffffffffffffffffffffffffffff1673ffffffffffffffffffffffffffffffffffffffff16815260200190815260200160002060008373ffffffffffffffffffffffffffffffffffffffff1673ffffffffffffffffffffffffffffffffffffffff16815260200190815260200160002054905092915050565b610e8b6110d7565b600073ffffffffffffffffffffffffffffffffffffffff168173ffffffffffffffffffffffffffffffffffffffff1603610efa576040517f08c379a0000000000000000000000000000000000000000000000000000000008152600401610ef190611d34565b60405180910390fd5b610f03816114dc565b50565b600033905090565b600073ffffffffffffffffffffffffffffffffffffffff168373ffffffffffffffffffffffffffffffffffffffff1603610f7d576040517f08c379a0000000000000000000000000000000000000000000000000000000008152600401610f7490611dc6565b60405180910390fd5b600073ffffffffffffffffffffffffffffffffffffffff168273ffffffffffffffffffffffffffffffffffffffff1603610fec576040517f08c379a0000000000000000000000000000000000000000000000000000000008152600401610fe390611e58565b60405180910390fd5b80600160008573ffffffffffffffffffffffffffffffffffffffff1673ffffffffffffffffffffffffffffffffffffffff16815260200190815260200160002060008473ffffffffffffffffffffffffffffffffffffffff1673ffffffffffffffffffffffffffffffffffffffff168152602001908152602001600020819055508173ffffffffffffffffffffffffffffffffffffffff168373ffffffffffffffffffffffffffffffffffffffff167f8c5be1e5ebec7d5bd14f71427d1e84f3dd0314c0f7b2291e5b200ac8c7c3b925836040516110ca9190611815565b60405180910390a3505050565b6110df610f06565b73ffffffffffffffffffffffffffffffffffffffff166110fd610c0d565b73ffffffffffffffffffffffffffffffffffffffff1614611153576040517f08c379a000000000000000000000000000000000000000000000000000000000815260040161114a90611ec4565b60405180910390fd5b565b60006111618484610dfc565b90507fffffffffffffffffffffffffffffffffffffffffffffffffffffffffffffffff81146111db57818110156111cd576040517f08c379a00000000000000000000000000000000000000000000000000000000081526004016111c490611f30565b60405180910390fd5b6111da8484848403610f0e565b5b50505050565b600073ffffffffffffffffffffffffffffffffffffffff168373ffffffffffffffffffffffffffffffffffffffff1603611250576040517f08c379a000000000000000000000000000000000000000000000000000000000815260040161124790611fc2565b60405180910390fd5b600073ffffffffffffffffffffffffffffffffffffffff168273ffffffffffffffffffffffffffffffffffffffff16036112bf576040517f08c379a00000000000000000000000000000000000000000000000000000000081526004016112b690612054565b60405180910390fd5b6112ca8383836115a2565b60008060008573ffffffffffffffffffffffffffffffffffffffff1673ffffffffffffffffffffffffffffffffffffffff16815260200190815260200160002054905081811015611350576040517f08c379a0000000000000000000000000000000000000000000000000000000008152600401611347906120e6565b60405180910390fd5b8181036000808673ffffffffffffffffffffffffffffffffffffffff1673ffffffffffffffffffffffffffffffffffffffff16815260200190815260200160002081905550816000808573ffffffffffffffffffffffffffffffffffffffff1673ffffffffffffffffffffffffffffffffffffffff168152602001908152602001600020600082825401925050819055508273ffffffffffffffffffffffffffffffffffffffff168473ffffffffffffffffffffffffffffffffffffffff167fddf252ad1be2c89b69c2b068fc378daa952ba7f163c4a11628f55a4df523b3ef8460405161143e9190611815565b60405180910390a36114518484846115a7565b50505050565b60026005540361149c576040517f08c379a000000000000000000000000000000000000000000000000000000000815260040161149390612152565b60405180910390fd5b6002600581905550565b600081836114b49190612172565b905092915050565b600081836114ca91906119e0565b905092915050565b6001600581905550565b6000600660009054906101000a900473ffffffffffffffffffffffffffffffffffffffff16905081600660006101000a81548173ffffffffffffffffffffffffffffffffffffffff021916908373ffffffffffffffffffffffffffffffffffffffff1602179055508173ffffffffffffffffffffffffffffffffffffffff168173ffffffffffffffffffffffffffffffffffffffff167f8be0079c531659141344cd1fd0a4f28419497f9722a3daafe3b4186f6b6457e060405160405180910390a35050565b505050565b505050565b600080fd5b600073ffffffffffffffffffffffffffffffffffffffff82169050919050565b60006115dc826115b1565b9050919050565b6115ec816115d1565b81146115f757600080fd5b50565b600081359050611609816115e3565b92915050565b600060208284031215611625576116246115ac565b5b6000611633848285016115fa565b91505092915050565b60008115159050919050565b6116518161163c565b82525050565b600060208201905061166c6000830184611648565b92915050565b600081519050919050565b600082825260208201905092915050565b60005b838110156116ac578082015181840152602081019050611691565b60008484015250505050565b6000601f19601f8301169050919050565b60006116d482611672565b6116de818561167d565b93506116ee81856020860161168e565b6116f7816116b8565b840191505092915050565b6000602082019050818103600083015261171c81846116c9565b905092915050565b6000819050919050565b61173781611724565b811461174257600080fd5b50565b6000813590506117548161172e565b92915050565b60008060408385031215611771576117706115ac565b5b600061177f858286016115fa565b925050602061179085828601611745565b9150509250929050565b6117a38161163c565b81146117ae57600080fd5b50565b6000813590506117c08161179a565b92915050565b600080604083850312156117dd576117dc6115ac565b5b60006117eb858286016115fa565b92505060206117fc858286016117b1565b9150509250929050565b61180f81611724565b82525050565b600060208201905061182a6000830184611806565b92915050565b600080600060608486031215611849576118486115ac565b5b6000611857868287016115fa565b9350506020611868868287016115fa565b925050604061187986828701611745565b9150509250925092565b600060ff82169050919050565b61189981611883565b82525050565b60006020820190506118b46000830184611890565b92915050565b6000602082840312156118d0576118cf6115ac565b5b60006118de84828501611745565b91505092915050565b6118f0816115d1565b82525050565b600060208201905061190b60008301846118e7565b92915050565b60008060408385031215611928576119276115ac565b5b6000611936858286016115fa565b9250506020611947858286016115fa565b9150509250929050565b7f4e487b7100000000000000000000000000000000000000000000000000000000600052602260045260246000fd5b6000600282049050600182168061199857607f821691505b6020821081036119ab576119aa611951565b5b50919050565b7f4e487b7100000000000000000000000000000000000000000000000000000000600052601160045260246000fd5b60006119eb82611724565b91506119f683611724565b9250828201905080821115611a0e57611a0d6119b1565b5b92915050565b7f53616c65206e6f74206163746976650000000000000000000000000000000000600082015250565b6000611a4a600f8361167d565b9150611a5582611a14565b602082019050919050565b60006020820190508181036000830152611a7981611a3d565b9050919050565b7f4e6f742077686974656c69737465640000000000000000000000000000000000600082015250565b6000611ab6600f8361167d565b9150611ac182611a80565b602082019050919050565b60006020820190508181036000830152611ae581611aa9565b9050919050565b7f4d7573742073656e642045746865720000000000000000000000000000000000600082015250565b6000611b22600f8361167d565b9150611b2d82611aec565b602082019050919050565b60006020820190508181036000830152611b5181611b15565b9050919050565b7f45786365656473206d6178207075726368617365206c696d6974000000000000600082015250565b6000611b8e601a8361167d565b9150611b9982611b58565b602082019050919050565b60006020820190508181036000830152611bbd81611b81565b9050919050565b7f53616c65206e6f7420656e646564207965740000000000000000000000000000600082015250565b6000611bfa60128361167d565b9150611c0582611bc4565b602082019050919050565b60006020820190508181036000830152611c2981611bed565b9050919050565b7f45524332303a2064656372656173656420616c6c6f77616e63652062656c6f7760008201527f207a65726f000000000000000000000000000000000000000000000000000000602082015250565b6000611c8c60258361167d565b9150611c9782611c30565b604082019050919050565b60006020820190508181036000830152611cbb81611c7f565b9050919050565b7f4f776e61626c653a206e6577206f776e657220697320746865207a65726f206160008201527f6464726573730000000000000000000000000000000000000000000000000000602082015250565b6000611d1e60268361167d565b9150611d2982611cc2565b604082019050919050565b60006020820190508181036000830152611d4d81611d11565b9050919050565b7f45524332303a20617070726f76652066726f6d20746865207a65726f2061646460008201527f7265737300000000000000000000000000000000000000000000000000000000602082015250565b6000611db060248361167d565b9150611dbb82611d54565b604082019050919050565b60006020820190508181036000830152611ddf81611da3565b9050919050565b7f45524332303a20617070726f766520746f20746865207a65726f20616464726560008201527f7373000000000000000000000000000000000000000000000000000000000000602082015250565b6000611e4260228361167d565b9150611e4d82611de6565b604082019050919050565b60006020820190508181036000830152611e7181611e35565b9050919050565b7f4f776e61626c653a2063616c6c6572206973206e6f7420746865206f776e6572600082015250565b6000611eae60208361167d565b9150611eb982611e78565b602082019050919050565b60006020820190508181036000830152611edd81611ea1565b9050919050565b7f45524332303a20696e73756666696369656e7420616c6c6f77616e6365000000600082015250565b6000611f1a601d8361167d565b9150611f2582611ee4565b602082019050919050565b60006020820190508181036000830152611f4981611f0d565b9050919050565b7f45524332303a207472616e736665722066726f6d20746865207a65726f20616460008201527f6472657373000000000000000000000000000000000000000000000000000000602082015250565b6000611fac60258361167d565b9150611fb782611f50565b604082019050919050565b60006020820190508181036000830152611fdb81611f9f565b9050919050565b7f45524332303a207472616e7366657220746f20746865207a65726f206164647260008201527f6573730000000000000000000000000000000000000000000000000000000000602082015250565b600061203e60238361167d565b915061204982611fe2565b604082019050919050565b6000602082019050818103600083015261206d81612031565b9050919050565b7f45524332303a207472616e7366657220616d6f756e742065786365656473206260008201527f616c616e63650000000000000000000000000000000000000000000000000000602082015250565b60006120d060268361167d565b91506120db82612074565b604082019050919050565b600060208201905081810360008301526120ff816120c3565b9050919050565b7f5265656e7472616e637947756172643a207265656e7472616e742063616c6c00600082015250565b600061213c601f8361167d565b915061214782612106565b602082019050919050565b6000602082019050818103600083015261216b8161212f565b9050919050565b600061217d82611724565b915061218883611724565b925082820261219681611724565b915082820484148315176121ad576121ac6119b1565b5b509291505056fea26469706673582212201ad6aa76b4b5e5c40f636f9b4fd850ed4efd4c2c9154f1df44e47f7551d17ce764736f6c63430008130033",
			"opcodes": "PUSH1 0x80 PUSH1 0x40 MSTORE PUSH1 0x64 PUSH1 0x7 SSTORE PUSH10 0x10F0CF064DD59200000 PUSH1 0x8 SSTORE CALLVALUE DUP1 ISZERO PUSH3 0x24 JUMPI PUSH1 0x0 DUP1 REVERT JUMPDEST POP PUSH1 0x40 MLOAD DUP1 PUSH1 0x40 ADD PUSH1 0x40 MSTORE DUP1 PUSH1 0x10 DUP2 MSTORE PUSH1 0x20 ADD PUSH32 0x42726F776E486F75736520546F6B656E00000000000000000000000000000000 DUP2 MSTORE POP PUSH1 0x40 MLOAD DUP1 PUSH1 0x40 ADD PUSH1 0x40 MSTORE DUP1 PUSH1 0x3 DUP2 MSTORE PUSH1 0x20 ADD PUSH32 0x4248540000000000000000000000000000000000000000000000000000000000 DUP2 MSTORE POP DUP2 PUSH1 0x3 SWAP1 DUP2 PUSH3 0xA2 SWAP2 SWAP1 PUSH3 0x5C6 JUMP JUMPDEST POP DUP1 PUSH1 0x4 SWAP1 DUP2 PUSH3 0xB4 SWAP2 SWAP1 PUSH3 0x5C6 JUMP JUMPDEST POP POP POP PUSH1 0x1 PUSH1 0x5 DUP2 SWAP1 SSTORE POP PUSH3 0xDF PUSH3 0xD3 PUSH3 0x107 PUSH1 0x20 SHL PUSH1 0x20 SHR JUMP JUMPDEST PUSH3 0x10F PUSH1 0x20 SHL PUSH1 0x20 SHR JUMP JUMPDEST PUSH1 0x0 PUSH10 0xD3C21BCECCEDA1000000 SWAP1 POP PUSH3 0x100 CALLER DUP3 PUSH3 0x1D5 PUSH1 0x20 SHL PUSH1 0x20 SHR JUMP JUMPDEST POP PUSH3 0x7C8 JUMP JUMPDEST PUSH1 0x0 CALLER SWAP1 POP SWAP1 JUMP JUMPDEST PUSH1 0x0 PUSH1 0x6 PUSH1 0x0 SWAP1 SLOAD SWAP1 PUSH2 0x100 EXP SWAP1 DIV PUSH20 0xFFFFFFFFFFFFFFFFFFFFFFFFFFFFFFFFFFFFFFFF AND SWAP1 POP DUP2 PUSH1 0x6 PUSH1 0x0 PUSH2 0x100 EXP DUP2 SLOAD DUP2 PUSH20 0xFFFFFFFFFFFFFFFFFFFFFFFFFFFFFFFFFFFFFFFF MUL NOT AND SWAP1 DUP4 PUSH20 0xFFFFFFFFFFFFFFFFFFFFFFFFFFFFFFFFFFFFFFFF AND MUL OR SWAP1 SSTORE POP DUP2 PUSH20 0xFFFFFFFFFFFFFFFFFFFFFFFFFFFFFFFFFFFFFFFF AND DUP2 PUSH20 0xFFFFFFFFFFFFFFFFFFFFFFFFFFFFFFFFFFFFFFFF AND PUSH32 0x8BE0079C531659141344CD1FD0A4F28419497F9722A3DAAFE3B4186F6B6457E0 PUSH1 0x40 MLOAD PUSH1 0x40 MLOAD DUP1 SWAP2 SUB SWAP1 LOG3 POP POP JUMP JUMPDEST PUSH1 0x0 PUSH20 0xFFFFFFFFFFFFFFFFFFFFFFFFFFFFFFFFFFFFFFFF AND DUP3 PUSH20 0xFFFFFFFFFFFFFFFFFFFFFFFFFFFFFFFFFFFFFFFF AND SUB PUSH3 0x247 JUMPI PUSH1 0x40 MLOAD PUSH32 0x8C379A000000000000000000000000000000000000000000000000000000000 DUP2 MSTORE PUSH1 0x4 ADD PUSH3 0x23E SWAP1 PUSH3 0x70E JUMP JUMPDEST PUSH1 0x40 MLOAD DUP1 SWAP2 SUB SWAP1 REVERT JUMPDEST PUSH3 0x25B PUSH1 0x0 DUP4 DUP4 PUSH3 0x342 PUSH1 0x20 SHL PUSH1 0x20 SHR JUMP JUMPDEST DUP1 PUSH1 0x2 PUSH1 0x0 DUP3 DUP3 SLOAD PUSH3 0x26F SWAP2 SWAP1 PUSH3 0x75F JUMP JUMPDEST SWAP3 POP POP DUP2 SWAP1 SSTORE POP DUP1 PUSH1 0x0 DUP1 DUP5 PUSH20 0xFFFFFFFFFFFFFFFFFFFFFFFFFFFFFFFFFFFFFFFF AND PUSH20 0xFFFFFFFFFFFFFFFFFFFFFFFFFFFFFFFFFFFFFFFF AND DUP2 MSTORE PUSH1 0x20 ADD SWAP1 DUP2 MSTORE PUSH1 0x20 ADD PUSH1 0x0 KECCAK256 PUSH1 0x0 DUP3 DUP3 SLOAD ADD SWAP3 POP POP DUP2 SWAP1 SSTORE POP DUP2 PUSH20 0xFFFFFFFFFFFFFFFFFFFFFFFFFFFFFFFFFFFFFFFF AND PUSH1 0x0 PUSH20 0xFFFFFFFFFFFFFFFFFFFFFFFFFFFFFFFFFFFFFFFF AND PUSH32 0xDDF252AD1BE2C89B69C2B068FC378DAA952BA7F163C4A11628F55A4DF523B3EF DUP4 PUSH1 0x40 MLOAD PUSH3 0x322 SWAP2 SWAP1 PUSH3 0x7AB JUMP JUMPDEST PUSH1 0x40 MLOAD DUP1 SWAP2 SUB SWAP1 LOG3 PUSH3 0x33E PUSH1 0x0 DUP4 DUP4 PUSH3 0x347 PUSH1 0x20 SHL PUSH1 0x20 SHR JUMP JUMPDEST POP POP JUMP JUMPDEST POP POP POP JUMP JUMPDEST POP POP POP JUMP JUMPDEST PUSH1 0x0 DUP2 MLOAD SWAP1 POP SWAP2 SWAP1 POP JUMP JUMPDEST PUSH32 0x4E487B7100000000000000000000000000000000000000000000000000000000 PUSH1 0x0 MSTORE PUSH1 0x41 PUSH1 0x4 MSTORE PUSH1 0x24 PUSH1 0x0 REVERT JUMPDEST PUSH32 0x4E487B7100000000000000000000000000000000000000000000000000000000 PUSH1 0x0 MSTORE PUSH1 0x22 PUSH1 0x4 MSTORE PUSH1 0x24 PUSH1 0x0 REVERT JUMPDEST PUSH1 0x0 PUSH1 0x2 DUP3 DIV SWAP1 POP PUSH1 0x1 DUP3 AND DUP1 PUSH3 0x3CE JUMPI PUSH1 0x7F DUP3 AND SWAP2 POP JUMPDEST PUSH1 0x20 DUP3 LT DUP2 SUB PUSH3 0x3E4 JUMPI PUSH3 0x3E3 PUSH3 0x386 JUMP JUMPDEST JUMPDEST POP SWAP2 SWAP1 POP JUMP JUMPDEST PUSH1 0x0 DUP2 SWAP1 POP DUP2 PUSH1 0x0 MSTORE PUSH1 0x20 PUSH1 0x0 KECCAK256 SWAP1 POP SWAP2 SWAP1 POP JUMP JUMPDEST PUSH1 0x0 PUSH1 0x20 PUSH1 0x1F DUP4 ADD DIV SWAP1 POP SWAP2 SWAP1 POP JUMP JUMPDEST PUSH1 0x0 DUP3 DUP3 SHL SWAP1 POP SWAP3 SWAP2 POP POP JUMP JUMPDEST PUSH1 0x0 PUSH1 0x8 DUP4 MUL PUSH3 0x44E PUSH32 0xFFFFFFFFFFFFFFFFFFFFFFFFFFFFFFFFFFFFFFFFFFFFFFFFFFFFFFFFFFFFFFFF DUP3 PUSH3 0x40F JUMP JUMPDEST PUSH3 0x45A DUP7 DUP4 PUSH3 0x40F JUMP JUMPDEST SWAP6 POP DUP1 NOT DUP5 AND SWAP4 POP DUP1 DUP7 AND DUP5 OR SWAP3 POP POP POP SWAP4 SWAP3 POP POP POP JUMP JUMPDEST PUSH1 0x0 DUP2 SWAP1 POP SWAP2 SWAP1 POP JUMP JUMPDEST PUSH1 0x0 DUP2 SWAP1 POP SWAP2 SWAP1 POP JUMP JUMPDEST PUSH1 0x0 PUSH3 0x4A7 PUSH3 0x4A1 PUSH3 0x49B DUP5 PUSH3 0x472 JUMP JUMPDEST PUSH3 0x47C JUMP JUMPDEST PUSH3 0x472 JUMP JUMPDEST SWAP1 POP SWAP2 SWAP1 POP JUMP JUMPDEST PUSH1 0x0 DUP2 SWAP1 POP SWAP2 SWAP1 POP JUMP JUMPDEST PUSH3 0x4C3 DUP4 PUSH3 0x486 JUMP JUMPDEST PUSH3 0x4DB PUSH3 0x4D2 DUP3 PUSH3 0x4AE JUMP JUMPDEST DUP5 DUP5 SLOAD PUSH3 0x41C JUMP JUMPDEST DUP3 SSTORE POP POP POP POP JUMP JUMPDEST PUSH1 0x0 SWAP1 JUMP JUMPDEST PUSH3 0x4F2 PUSH3 0x4E3 JUMP JUMPDEST PUSH3 0x4FF DUP2 DUP5 DUP5 PUSH3 0x4B8 JUMP JUMPDEST POP POP POP JUMP JUMPDEST JUMPDEST DUP2 DUP2 LT ISZERO PUSH3 0x527 JUMPI PUSH3 0x51B PUSH1 0x0 DUP3 PUSH3 0x4E8 JUMP JUMPDEST PUSH1 0x1 DUP2 ADD SWAP1 POP PUSH3 0x505 JUMP JUMPDEST POP POP JUMP JUMPDEST PUSH1 0x1F DUP3 GT ISZERO PUSH3 0x576 JUMPI PUSH3 0x540 DUP2 PUSH3 0x3EA JUMP JUMPDEST PUSH3 0x54B DUP5 PUSH3 0x3FF JUMP JUMPDEST DUP2 ADD PUSH1 0x20 DUP6 LT ISZERO PUSH3 0x55B JUMPI DUP2 SWAP1 POP JUMPDEST PUSH3 0x573 PUSH3 0x56A DUP6 PUSH3 0x3FF JUMP JUMPDEST DUP4 ADD DUP3 PUSH3 0x504 JUMP JUMPDEST POP POP JUMPDEST POP POP POP JUMP JUMPDEST PUSH1 0x0 DUP3 DUP3 SHR SWAP1 POP SWAP3 SWAP2 POP POP JUMP JUMPDEST PUSH1 0x0 PUSH3 0x59B PUSH1 0x0 NOT DUP5 PUSH1 0x8 MUL PUSH3 0x57B JUMP JUMPDEST NOT DUP1 DUP4 AND SWAP2 POP POP SWAP3 SWAP2 POP POP JUMP JUMPDEST PUSH1 0x0 PUSH3 0x5B6 DUP4 DUP4 PUSH3 0x588 JUMP JUMPDEST SWAP2 POP DUP3 PUSH1 0x2 MUL DUP3 OR SWAP1 POP SWAP3 SWAP2 POP POP JUMP JUMPDEST PUSH3 0x5D1 DUP3 PUSH3 0x34C JUMP JUMPDEST PUSH8 0xFFFFFFFFFFFFFFFF DUP2 GT ISZERO PUSH3 0x5ED JUMPI PUSH3 0x5EC PUSH3 0x357 JUMP JUMPDEST JUMPDEST PUSH3 0x5F9 DUP3 SLOAD PUSH3 0x3B5 JUMP JUMPDEST PUSH3 0x606 DUP3 DUP3 DUP6 PUSH3 0x52B JUMP JUMPDEST PUSH1 0x0 PUSH1 0x20 SWAP1 POP PUSH1 0x1F DUP4 GT PUSH1 0x1 DUP2 EQ PUSH3 0x63E JUMPI PUSH1 0x0 DUP5 ISZERO PUSH3 0x629 JUMPI DUP3 DUP8 ADD MLOAD SWAP1 POP JUMPDEST PUSH3 0x635 DUP6 DUP3 PUSH3 0x5A8 JUMP JUMPDEST DUP7 SSTORE POP PUSH3 0x6A5 JUMP JUMPDEST PUSH1 0x1F NOT DUP5 AND PUSH3 0x64E DUP7 PUSH3 0x3EA JUMP JUMPDEST PUSH1 0x0 JUMPDEST DUP3 DUP2 LT ISZERO PUSH3 0x678 JUMPI DUP5 DUP10 ADD MLOAD DUP3 SSTORE PUSH1 0x1 DUP3 ADD SWAP2 POP PUSH1 0x20 DUP6 ADD SWAP5 POP PUSH1 0x20 DUP2 ADD SWAP1 POP PUSH3 0x651 JUMP JUMPDEST DUP7 DUP4 LT ISZERO PUSH3 0x698 JUMPI DUP5 DUP10 ADD MLOAD PUSH3 0x694 PUSH1 0x1F DUP10 AND DUP3 PUSH3 0x588 JUMP JUMPDEST DUP4 SSTORE POP JUMPDEST PUSH1 0x1 PUSH1 0x2 DUP9 MUL ADD DUP9 SSTORE POP POP POP JUMPDEST POP POP POP POP POP POP JUMP JUMPDEST PUSH1 0x0 DUP3 DUP3 MSTORE PUSH1 0x20 DUP3 ADD SWAP1 POP SWAP3 SWAP2 POP POP JUMP JUMPDEST PUSH32 0x45524332303A206D696E7420746F20746865207A65726F206164647265737300 PUSH1 0x0 DUP3 ADD MSTORE POP JUMP JUMPDEST PUSH1 0x0 PUSH3 0x6F6 PUSH1 0x1F DUP4 PUSH3 0x6AD JUMP JUMPDEST SWAP2 POP PUSH3 0x703 DUP3 PUSH3 0x6BE JUMP JUMPDEST PUSH1 0x20 DUP3 ADD SWAP1 POP SWAP2 SWAP1 POP JUMP JUMPDEST PUSH1 0x0 PUSH1 0x20 DUP3 ADD SWAP1 POP DUP2 DUP2 SUB PUSH1 0x0 DUP4 ADD MSTORE PUSH3 0x729 DUP2 PUSH3 0x6E7 JUMP JUMPDEST SWAP1 POP SWAP2 SWAP1 POP JUMP JUMPDEST PUSH32 0x4E487B7100000000000000000000000000000000000000000000000000000000 PUSH1 0x0 MSTORE PUSH1 0x11 PUSH1 0x4 MSTORE PUSH1 0x24 PUSH1 0x0 REVERT JUMPDEST PUSH1 0x0 PUSH3 0x76C DUP3 PUSH3 0x472 JUMP JUMPDEST SWAP2 POP PUSH3 0x779 DUP4 PUSH3 0x472 JUMP JUMPDEST SWAP3 POP DUP3 DUP3 ADD SWAP1 POP DUP1 DUP3 GT ISZERO PUSH3 0x794 JUMPI PUSH3 0x793 PUSH3 0x730 JUMP JUMPDEST JUMPDEST SWAP3 SWAP2 POP POP JUMP JUMPDEST PUSH3 0x7A5 DUP2 PUSH3 0x472 JUMP JUMPDEST DUP3 MSTORE POP POP JUMP JUMPDEST PUSH1 0x0 PUSH1 0x20 DUP3 ADD SWAP1 POP PUSH3 0x7C2 PUSH1 0x0 DUP4 ADD DUP5 PUSH3 0x79A JUMP JUMPDEST SWAP3 SWAP2 POP POP JUMP JUMPDEST PUSH2 0x21EA DUP1 PUSH3 0x7D8 PUSH1 0x0 CODECOPY PUSH1 0x0 RETURN INVALID PUSH1 0x80 PUSH1 0x40 MSTORE PUSH1 0x4 CALLDATASIZE LT PUSH2 0x181 JUMPI PUSH1 0x0 CALLDATALOAD PUSH1 0xE0 SHR DUP1 PUSH4 0x64EDFBF0 GT PUSH2 0xD1 JUMPI DUP1 PUSH4 0x95D89B41 GT PUSH2 0x8A JUMPI DUP1 PUSH4 0xC8BDBFB6 GT PUSH2 0x64 JUMPI DUP1 PUSH4 0xC8BDBFB6 EQ PUSH2 0x57B JUMPI DUP1 PUSH4 0xDB068E0E EQ PUSH2 0x592 JUMPI DUP1 PUSH4 0xDD62ED3E EQ PUSH2 0x5BB JUMPI DUP1 PUSH4 0xF2FDE38B EQ PUSH2 0x5F8 JUMPI PUSH2 0x181 JUMP JUMPDEST DUP1 PUSH4 0x95D89B41 EQ PUSH2 0x4D6 JUMPI DUP1 PUSH4 0xA457C2D7 EQ PUSH2 0x501 JUMPI DUP1 PUSH4 0xA9059CBB EQ PUSH2 0x53E JUMPI PUSH2 0x181 JUMP JUMPDEST DUP1 PUSH4 0x64EDFBF0 EQ PUSH2 0x40B JUMPI DUP1 PUSH4 0x67D398B1 EQ PUSH2 0x415 JUMPI DUP1 PUSH4 0x70A08231 EQ PUSH2 0x42C JUMPI DUP1 PUSH4 0x715018A6 EQ PUSH2 0x469 JUMPI DUP1 PUSH4 0x8DA5CB5B EQ PUSH2 0x480 JUMPI DUP1 PUSH4 0x946807FD EQ PUSH2 0x4AB JUMPI PUSH2 0x181 JUMP JUMPDEST DUP1 PUSH4 0x23B872DD GT PUSH2 0x13E JUMPI DUP1 PUSH4 0x39509351 GT PUSH2 0x118 JUMPI DUP1 PUSH4 0x39509351 EQ PUSH2 0x33D JUMPI DUP1 PUSH4 0x4210830D EQ PUSH2 0x37A JUMPI DUP1 PUSH4 0x44C4DCC1 EQ PUSH2 0x3A5 JUMPI DUP1 PUSH4 0x45E313AA EQ PUSH2 0x3E2 JUMPI PUSH2 0x181 JUMP JUMPDEST DUP1 PUSH4 0x23B872DD EQ PUSH2 0x2AA JUMPI DUP1 PUSH4 0x24F3772C EQ PUSH2 0x2E7 JUMPI DUP1 PUSH4 0x313CE567 EQ PUSH2 0x312 JUMPI PUSH2 0x181 JUMP JUMPDEST DUP1 PUSH4 0x6C933D8 EQ PUSH2 0x186 JUMPI DUP1 PUSH4 0x6FDDE03 EQ PUSH2 0x1C3 JUMPI DUP1 PUSH4 0x95EA7B3 EQ PUSH2 0x1EE JUMPI DUP1 PUSH4 0xD392CD9 EQ PUSH2 0x22B JUMPI DUP1 PUSH4 0x171EF0B2 EQ PUSH2 0x254 JUMPI DUP1 PUSH4 0x18160DDD EQ PUSH2 0x27F JUMPI JUMPDEST PUSH1 0x0 DUP1 REVERT JUMPDEST CALLVALUE DUP1 ISZERO PUSH2 0x192 JUMPI PUSH1 0x0 DUP1 REVERT JUMPDEST POP PUSH2 0x1AD PUSH1 0x4 DUP1 CALLDATASIZE SUB DUP2 ADD SWAP1 PUSH2 0x1A8 SWAP2 SWAP1 PUSH2 0x160F JUMP JUMPDEST PUSH2 0x621 JUMP JUMPDEST PUSH1 0x40 MLOAD PUSH2 0x1BA SWAP2 SWAP1 PUSH2 0x1657 JUMP JUMPDEST PUSH1 0x40 MLOAD DUP1 SWAP2 SUB SWAP1 RETURN JUMPDEST CALLVALUE DUP1 ISZERO PUSH2 0x1CF JUMPI PUSH1 0x0 DUP1 REVERT JUMPDEST POP PUSH2 0x1D8 PUSH2 0x641 JUMP JUMPDEST PUSH1 0x40 MLOAD PUSH2 0x1E5 SWAP2 SWAP1 PUSH2 0x1702 JUMP JUMPDEST PUSH1 0x40 MLOAD DUP1 SWAP2 SUB SWAP1 RETURN JUMPDEST CALLVALUE DUP1 ISZERO PUSH2 0x1FA JUMPI PUSH1 0x0 DUP1 REVERT JUMPDEST POP PUSH2 0x215 PUSH1 0x4 DUP1 CALLDATASIZE SUB DUP2 ADD SWAP1 PUSH2 0x210 SWAP2 SWAP1 PUSH2 0x175A JUMP JUMPDEST PUSH2 0x6D3 JUMP JUMPDEST PUSH1 0x40 MLOAD PUSH2 0x222 SWAP2 SWAP1 PUSH2 0x1657 JUMP JUMPDEST PUSH1 0x40 MLOAD DUP1 SWAP2 SUB SWAP1 RETURN JUMPDEST CALLVALUE DUP1 ISZERO PUSH2 0x237 JUMPI PUSH1 0x0 DUP1 REVERT JUMPDEST POP PUSH2 0x252 PUSH1 0x4 DUP1 CALLDATASIZE SUB DUP2 ADD SWAP1 PUSH2 0x24D SWAP2 SWAP1 PUSH2 0x17C6 JUMP JUMPDEST PUSH2 0x6F6 JUMP JUMPDEST STOP JUMPDEST CALLVALUE DUP1 ISZERO PUSH2 0x260 JUMPI PUSH1 0x0 DUP1 REVERT JUMPDEST POP PUSH2 0x269 PUSH2 0x7A7 JUMP JUMPDEST PUSH1 0x40 MLOAD PUSH2 0x276 SWAP2 SWAP1 PUSH2 0x1815 JUMP JUMPDEST PUSH1 0x40 MLOAD DUP1 SWAP2 SUB SWAP1 RETURN JUMPDEST CALLVALUE DUP1 ISZERO PUSH2 0x28B JUMPI PUSH1 0x0 DUP1 REVERT JUMPDEST POP PUSH2 0x294 PUSH2 0x7AD JUMP JUMPDEST PUSH1 0x40 MLOAD PUSH2 0x2A1 SWAP2 SWAP1 PUSH2 0x1815 JUMP JUMPDEST PUSH1 0x40 MLOAD DUP1 SWAP2 SUB SWAP1 RETURN JUMPDEST CALLVALUE DUP1 ISZERO PUSH2 0x2B6 JUMPI PUSH1 0x0 DUP1 REVERT JUMPDEST POP PUSH2 0x2D1 PUSH1 0x4 DUP1 CALLDATASIZE SUB DUP2 ADD SWAP1 PUSH2 0x2CC SWAP2 SWAP1 PUSH2 0x1830 JUMP JUMPDEST PUSH2 0x7B7 JUMP JUMPDEST PUSH1 0x40 MLOAD PUSH2 0x2DE SWAP2 SWAP1 PUSH2 0x1657 JUMP JUMPDEST PUSH1 0x40 MLOAD DUP1 SWAP2 SUB SWAP1 RETURN JUMPDEST CALLVALUE DUP1 ISZERO PUSH2 0x2F3 JUMPI PUSH1 0x0 DUP1 REVERT JUMPDEST POP PUSH2 0x2FC PUSH2 0x7E6 JUMP JUMPDEST PUSH1 0x40 MLOAD PUSH2 0x309 SWAP2 SWAP1 PUSH2 0x1815 JUMP JUMPDEST PUSH1 0x40 MLOAD DUP1 SWAP2 SUB SWAP1 RETURN JUMPDEST CALLVALUE DUP1 ISZERO PUSH2 0x31E JUMPI PUSH1 0x0 DUP1 REVERT JUMPDEST POP PUSH2 0x327 PUSH2 0x7EC JUMP JUMPDEST PUSH1 0x40 MLOAD PUSH2 0x334 SWAP2 SWAP1 PUSH2 0x189F JUMP JUMPDEST PUSH1 0x40 MLOAD DUP1 SWAP2 SUB SWAP1 RETURN JUMPDEST CALLVALUE DUP1 ISZERO PUSH2 0x349 JUMPI PUSH1 0x0 DUP1 REVERT JUMPDEST POP PUSH2 0x364 PUSH1 0x4 DUP1 CALLDATASIZE SUB DUP2 ADD SWAP1 PUSH2 0x35F SWAP2 SWAP1 PUSH2 0x175A JUMP JUMPDEST PUSH2 0x7F5 JUMP JUMPDEST PUSH1 0x40 MLOAD PUSH2 0x371 SWAP2 SWAP1 PUSH2 0x1657 JUMP JUMPDEST PUSH1 0x40 MLOAD DUP1 SWAP2 SUB SWAP1 RETURN JUMPDEST CALLVALUE DUP1 ISZERO PUSH2 0x386 JUMPI PUSH1 0x0 DUP1 REVERT JUMPDEST POP PUSH2 0x38F PUSH2 0x82C JUMP JUMPDEST PUSH1 0x40 MLOAD PUSH2 0x39C SWAP2 SWAP1 PUSH2 0x1815 JUMP JUMPDEST PUSH1 0x40 MLOAD DUP1 SWAP2 SUB SWAP1 RETURN JUMPDEST CALLVALUE DUP1 ISZERO PUSH2 0x3B1 JUMPI PUSH1 0x0 DUP1 REVERT JUMPDEST POP PUSH2 0x3CC PUSH1 0x4 DUP1 CALLDATASIZE SUB DUP2 ADD SWAP1 PUSH2 0x3C7 SWAP2 SWAP1 PUSH2 0x160F JUMP JUMPDEST PUSH2 0x842 JUMP JUMPDEST PUSH1 0x40 MLOAD PUSH2 0x3D9 SWAP2 SWAP1 PUSH2 0x1815 JUMP JUMPDEST PUSH1 0x40 MLOAD DUP1 SWAP2 SUB SWAP1 RETURN JUMPDEST CALLVALUE DUP1 ISZERO PUSH2 0x3EE JUMPI PUSH1 0x0 DUP1 REVERT JUMPDEST POP PUSH2 0x409 PUSH1 0x4 DUP1 CALLDATASIZE SUB DUP2 ADD SWAP1 PUSH2 0x404 SWAP2 SWAP1 PUSH2 0x18BA JUMP JUMPDEST PUSH2 0x85A JUMP JUMPDEST STOP JUMPDEST PUSH2 0x413 PUSH2 0x86C JUMP JUMPDEST STOP JUMPDEST CALLVALUE DUP1 ISZERO PUSH2 0x421 JUMPI PUSH1 0x0 DUP1 REVERT JUMPDEST POP PUSH2 0x42A PUSH2 0xB0C JUMP JUMPDEST STOP JUMPDEST CALLVALUE DUP1 ISZERO PUSH2 0x438 JUMPI PUSH1 0x0 DUP1 REVERT JUMPDEST POP PUSH2 0x453 PUSH1 0x4 DUP1 CALLDATASIZE SUB DUP2 ADD SWAP1 PUSH2 0x44E SWAP2 SWAP1 PUSH2 0x160F JUMP JUMPDEST PUSH2 0xBB1 JUMP JUMPDEST PUSH1 0x40 MLOAD PUSH2 0x460 SWAP2 SWAP1 PUSH2 0x1815 JUMP JUMPDEST PUSH1 0x40 MLOAD DUP1 SWAP2 SUB SWAP1 RETURN JUMPDEST CALLVALUE DUP1 ISZERO PUSH2 0x475 JUMPI PUSH1 0x0 DUP1 REVERT JUMPDEST POP PUSH2 0x47E PUSH2 0xBF9 JUMP JUMPDEST STOP JUMPDEST CALLVALUE DUP1 ISZERO PUSH2 0x48C JUMPI PUSH1 0x0 DUP1 REVERT JUMPDEST POP PUSH2 0x495 PUSH2 0xC0D JUMP JUMPDEST PUSH1 0x40 MLOAD PUSH2 0x4A2 SWAP2 SWAP1 PUSH2 0x18F6 JUMP JUMPDEST PUSH1 0x40 MLOAD DUP1 SWAP2 SUB SWAP1 RETURN JUMPDEST CALLVALUE DUP1 ISZERO PUSH2 0x4B7 JUMPI PUSH1 0x0 DUP1 REVERT JUMPDEST POP PUSH2 0x4C0 PUSH2 0xC37 JUMP JUMPDEST PUSH1 0x40 MLOAD PUSH2 0x4CD SWAP2 SWAP1 PUSH2 0x1815 JUMP JUMPDEST PUSH1 0x40 MLOAD DUP1 SWAP2 SUB SWAP1 RETURN JUMPDEST CALLVALUE DUP1 ISZERO PUSH2 0x4E2 JUMPI PUSH1 0x0 DUP1 REVERT JUMPDEST POP PUSH2 0x4EB PUSH2 0xC3F JUMP JUMPDEST PUSH1 0x40 MLOAD PUSH2 0x4F8 SWAP2 SWAP1 PUSH2 0x1702 JUMP JUMPDEST PUSH1 0x40 MLOAD DUP1 SWAP2 SUB SWAP1 RETURN JUMPDEST CALLVALUE DUP1 ISZERO PUSH2 0x50D JUMPI PUSH1 0x0 DUP1 REVERT JUMPDEST POP PUSH2 0x528 PUSH1 0x4 DUP1 CALLDATASIZE SUB DUP2 ADD SWAP1 PUSH2 0x523 SWAP2 SWAP1 PUSH2 0x175A JUMP JUMPDEST PUSH2 0xCD1 JUMP JUMPDEST PUSH1 0x40 MLOAD PUSH2 0x535 SWAP2 SWAP1 PUSH2 0x1657 JUMP JUMPDEST PUSH1 0x40 MLOAD DUP1 SWAP2 SUB SWAP1 RETURN JUMPDEST CALLVALUE DUP1 ISZERO PUSH2 0x54A JUMPI PUSH1 0x0 DUP1 REVERT JUMPDEST POP PUSH2 0x565 PUSH1 0x4 DUP1 CALLDATASIZE SUB DUP2 ADD SWAP1 PUSH2 0x560 SWAP2 SWAP1 PUSH2 0x175A JUMP JUMPDEST PUSH2 0xD48 JUMP JUMPDEST PUSH1 0x40 MLOAD PUSH2 0x572 SWAP2 SWAP1 PUSH2 0x1657 JUMP JUMPDEST PUSH1 0x40 MLOAD DUP1 SWAP2 SUB SWAP1 RETURN JUMPDEST CALLVALUE DUP1 ISZERO PUSH2 0x587 JUMPI PUSH1 0x0 DUP1 REVERT JUMPDEST POP PUSH2 0x590 PUSH2 0xD6B JUMP JUMPDEST STOP JUMPDEST CALLVALUE DUP1 ISZERO PUSH2 0x59E JUMPI PUSH1 0x0 DUP1 REVERT JUMPDEST POP PUSH2 0x5B9 PUSH1 0x4 DUP1 CALLDATASIZE SUB DUP2 ADD SWAP1 PUSH2 0x5B4 SWAP2 SWAP1 PUSH2 0x18BA JUMP JUMPDEST PUSH2 0xDEA JUMP JUMPDEST STOP JUMPDEST CALLVALUE DUP1 ISZERO PUSH2 0x5C7 JUMPI PUSH1 0x0 DUP1 REVERT JUMPDEST POP PUSH2 0x5E2 PUSH1 0x4 DUP1 CALLDATASIZE SUB DUP2 ADD SWAP1 PUSH2 0x5DD SWAP2 SWAP1 PUSH2 0x1911 JUMP JUMPDEST PUSH2 0xDFC JUMP JUMPDEST PUSH1 0x40 MLOAD PUSH2 0x5EF SWAP2 SWAP1 PUSH2 0x1815 JUMP JUMPDEST PUSH1 0x40 MLOAD DUP1 SWAP2 SUB SWAP1 RETURN JUMPDEST CALLVALUE DUP1 ISZERO PUSH2 0x604 JUMPI PUSH1 0x0 DUP1 REVERT JUMPDEST POP PUSH2 0x61F PUSH1 0x4 DUP1 CALLDATASIZE SUB DUP2 ADD SWAP1 PUSH2 0x61A SWAP2 SWAP1 PUSH2 0x160F JUMP JUMPDEST PUSH2 0xE83 JUMP JUMPDEST STOP JUMPDEST PUSH1 0xA PUSH1 0x20 MSTORE DUP1 PUSH1 0x0 MSTORE PUSH1 0x40 PUSH1 0x0 KECCAK256 PUSH1 0x0 SWAP2 POP SLOAD SWAP1 PUSH2 0x100 EXP SWAP1 DIV PUSH1 0xFF AND DUP2 JUMP JUMPDEST PUSH1 0x60 PUSH1 0x3 DUP1 SLOAD PUSH2 0x650 SWAP1 PUSH2 0x1980 JUMP JUMPDEST DUP1 PUSH1 0x1F ADD PUSH1 0x20 DUP1 SWAP2 DIV MUL PUSH1 0x20 ADD PUSH1 0x40 MLOAD SWAP1 DUP2 ADD PUSH1 0x40 MSTORE DUP1 SWAP3 SWAP2 SWAP1 DUP2 DUP2 MSTORE PUSH1 0x20 ADD DUP3 DUP1 SLOAD PUSH2 0x67C SWAP1 PUSH2 0x1980 JUMP JUMPDEST DUP1 ISZERO PUSH2 0x6C9 JUMPI DUP1 PUSH1 0x1F LT PUSH2 0x69E JUMPI PUSH2 0x100 DUP1 DUP4 SLOAD DIV MUL DUP4 MSTORE SWAP2 PUSH1 0x20 ADD SWAP2 PUSH2 0x6C9 JUMP JUMPDEST DUP3 ADD SWAP2 SWAP1 PUSH1 0x0 MSTORE PUSH1 0x20 PUSH1 0x0 KECCAK256 SWAP1 JUMPDEST DUP2 SLOAD DUP2 MSTORE SWAP1 PUSH1 0x1 ADD SWAP1 PUSH1 0x20 ADD DUP1 DUP4 GT PUSH2 0x6AC JUMPI DUP3 SWAP1 SUB PUSH1 0x1F AND DUP3 ADD SWAP2 JUMPDEST POP POP POP POP POP SWAP1 POP SWAP1 JUMP JUMPDEST PUSH1 0x0 DUP1 PUSH2 0x6DE PUSH2 0xF06 JUMP JUMPDEST SWAP1 POP PUSH2 0x6EB DUP2 DUP6 DUP6 PUSH2 0xF0E JUMP JUMPDEST PUSH1 0x1 SWAP2 POP POP SWAP3 SWAP2 POP POP JUMP JUMPDEST PUSH2 0x6FE PUSH2 0x10D7 JUMP JUMPDEST DUP1 PUSH1 0xA PUSH1 0x0 DUP5 PUSH20 0xFFFFFFFFFFFFFFFFFFFFFFFFFFFFFFFFFFFFFFFF AND PUSH20 0xFFFFFFFFFFFFFFFFFFFFFFFFFFFFFFFFFFFFFFFF AND DUP2 MSTORE PUSH1 0x20 ADD SWAP1 DUP2 MSTORE PUSH1 0x20 ADD PUSH1 0x0 KECCAK256 PUSH1 0x0 PUSH2 0x100 EXP DUP2 SLOAD DUP2 PUSH1 0xFF MUL NOT AND SWAP1 DUP4 ISZERO ISZERO MUL OR SWAP1 SSTORE POP DUP2 PUSH20 0xFFFFFFFFFFFFFFFFFFFFFFFFFFFFFFFFFFFFFFFF AND PUSH32 0xF93F9A76C1BF3444D22400A00CB9FE990E6ABE9DBB333FDA48859CFEE864543D DUP3 PUSH1 0x40 MLOAD PUSH2 0x79B SWAP2 SWAP1 PUSH2 0x1657 JUMP JUMPDEST PUSH1 0x40 MLOAD DUP1 SWAP2 SUB SWAP1 LOG2 POP POP JUMP JUMPDEST PUSH1 0x7 SLOAD DUP2 JUMP JUMPDEST PUSH1 0x0 PUSH1 0x2 SLOAD SWAP1 POP SWAP1 JUMP JUMPDEST PUSH1 0x0 DUP1 PUSH2 0x7C2 PUSH2 0xF06 JUMP JUMPDEST SWAP1 POP PUSH2 0x7CF DUP6 DUP3 DUP6 PUSH2 0x1155 JUMP JUMPDEST PUSH2 0x7DA DUP6 DUP6 DUP6 PUSH2 0x11E1 JUMP JUMPDEST PUSH1 0x1 SWAP2 POP POP SWAP4 SWAP3 POP POP POP JUMP JUMPDEST PUSH1 0x8 SLOAD DUP2 JUMP JUMPDEST PUSH1 0x0 PUSH1 0x12 SWAP1 POP SWAP1 JUMP JUMPDEST PUSH1 0x0 DUP1 PUSH2 0x800 PUSH2 0xF06 JUMP JUMPDEST SWAP1 POP PUSH2 0x821 DUP2 DUP6 DUP6 PUSH2 0x812 DUP6 DUP10 PUSH2 0xDFC JUMP JUMPDEST PUSH2 0x81C SWAP2 SWAP1 PUSH2 0x19E0 JUMP JUMPDEST PUSH2 0xF0E JUMP JUMPDEST PUSH1 0x1 SWAP2 POP POP SWAP3 SWAP2 POP POP JUMP JUMPDEST PUSH3 0x93A80 PUSH4 0x64510403 PUSH2 0x83F SWAP2 SWAP1 PUSH2 0x19E0 JUMP JUMPDEST DUP2 JUMP JUMPDEST PUSH1 0x9 PUSH1 0x20 MSTORE DUP1 PUSH1 0x0 MSTORE PUSH1 0x40 PUSH1 0x0 KECCAK256 PUSH1 0x0 SWAP2 POP SWAP1 POP SLOAD DUP2 JUMP JUMPDEST PUSH2 0x862 PUSH2 0x10D7 JUMP JUMPDEST DUP1 PUSH1 0x8 DUP2 SWAP1 SSTORE POP POP JUMP JUMPDEST PUSH4 0x64510403 TIMESTAMP LT ISZERO DUP1 ISZERO PUSH2 0x892 JUMPI POP PUSH3 0x93A80 PUSH4 0x64510403 PUSH2 0x88E SWAP2 SWAP1 PUSH2 0x19E0 JUMP JUMPDEST TIMESTAMP GT ISZERO JUMPDEST PUSH2 0x8D1 JUMPI PUSH1 0x40 MLOAD PUSH32 0x8C379A000000000000000000000000000000000000000000000000000000000 DUP2 MSTORE PUSH1 0x4 ADD PUSH2 0x8C8 SWAP1 PUSH2 0x1A60 JUMP JUMPDEST PUSH1 0x40 MLOAD DUP1 SWAP2 SUB SWAP1 REVERT JUMPDEST PUSH1 0xA PUSH1 0x0 CALLER PUSH20 0xFFFFFFFFFFFFFFFFFFFFFFFFFFFFFFFFFFFFFFFF AND PUSH20 0xFFFFFFFFFFFFFFFFFFFFFFFFFFFFFFFFFFFFFFFF AND DUP2 MSTORE PUSH1 0x20 ADD SWAP1 DUP2 MSTORE PUSH1 0x20 ADD PUSH1 0x0 KECCAK256 PUSH1 0x0 SWAP1 SLOAD SWAP1 PUSH2 0x100 EXP SWAP1 DIV PUSH1 0xFF AND PUSH2 0x95D JUMPI PUSH1 0x40 MLOAD PUSH32 0x8C379A000000000000000000000000000000000000000000000000000000000 DUP2 MSTORE PUSH1 0x4 ADD PUSH2 0x954 SWAP1 PUSH2 0x1ACC JUMP JUMPDEST PUSH1 0x40 MLOAD DUP1 SWAP2 SUB SWAP1 REVERT JUMPDEST PUSH2 0x965 PUSH2 0x1457 JUMP JUMPDEST PUSH1 0x0 CALLVALUE GT PUSH2 0x9A8 JUMPI PUSH1 0x40 MLOAD PUSH32 0x8C379A000000000000000000000000000000000000000000000000000000000 DUP2 MSTORE PUSH1 0x4 ADD PUSH2 0x99F SWAP1 PUSH2 0x1B38 JUMP JUMPDEST PUSH1 0x40 MLOAD DUP1 SWAP2 SUB SWAP1 REVERT JUMPDEST PUSH1 0x0 PUSH2 0x9BF PUSH1 0x7 SLOAD CALLVALUE PUSH2 0x14A6 SWAP1 SWAP2 SWAP1 PUSH4 0xFFFFFFFF AND JUMP JUMPDEST SWAP1 POP PUSH1 0x0 PUSH2 0xA15 DUP3 PUSH1 0x9 PUSH1 0x0 CALLER PUSH20 0xFFFFFFFFFFFFFFFFFFFFFFFFFFFFFFFFFFFFFFFF AND PUSH20 0xFFFFFFFFFFFFFFFFFFFFFFFFFFFFFFFFFFFFFFFF AND DUP2 MSTORE PUSH1 0x20 ADD SWAP1 DUP2 MSTORE PUSH1 0x20 ADD PUSH1 0x0 KECCAK256 SLOAD PUSH2 0x14BC SWAP1 SWAP2 SWAP1 PUSH4 0xFFFFFFFF AND JUMP JUMPDEST SWAP1 POP PUSH1 0x8 SLOAD DUP2 GT ISZERO PUSH2 0xA5C JUMPI PUSH1 0x40 MLOAD PUSH32 0x8C379A000000000000000000000000000000000000000000000000000000000 DUP2 MSTORE PUSH1 0x4 ADD PUSH2 0xA53 SWAP1 PUSH2 0x1BA4 JUMP JUMPDEST PUSH1 0x40 MLOAD DUP1 SWAP2 SUB SWAP1 REVERT JUMPDEST DUP1 PUSH1 0x9 PUSH1 0x0 CALLER PUSH20 0xFFFFFFFFFFFFFFFFFFFFFFFFFFFFFFFFFFFFFFFF AND PUSH20 0xFFFFFFFFFFFFFFFFFFFFFFFFFFFFFFFFFFFFFFFF AND DUP2 MSTORE PUSH1 0x20 ADD SWAP1 DUP2 MSTORE PUSH1 0x20 ADD PUSH1 0x0 KECCAK256 DUP2 SWAP1 SSTORE POP PUSH2 0xAB2 PUSH2 0xAAB PUSH2 0xC0D JUMP JUMPDEST CALLER DUP5 PUSH2 0x11E1 JUMP JUMPDEST PUSH2 0xABA PUSH2 0xC0D JUMP JUMPDEST PUSH20 0xFFFFFFFFFFFFFFFFFFFFFFFFFFFFFFFFFFFFFFFF AND PUSH2 0x8FC CALLVALUE SWAP1 DUP2 ISZERO MUL SWAP1 PUSH1 0x40 MLOAD PUSH1 0x0 PUSH1 0x40 MLOAD DUP1 DUP4 SUB DUP2 DUP6 DUP9 DUP9 CALL SWAP4 POP POP POP POP ISZERO DUP1 ISZERO PUSH2 0xAFF JUMPI RETURNDATASIZE PUSH1 0x0 DUP1 RETURNDATACOPY RETURNDATASIZE PUSH1 0x0 REVERT JUMPDEST POP POP POP PUSH2 0xB0A PUSH2 0x14D2 JUMP JUMPDEST JUMP JUMPDEST PUSH2 0xB14 PUSH2 0x10D7 JUMP JUMPDEST PUSH3 0x93A80 PUSH4 0x64510403 PUSH2 0xB27 SWAP2 SWAP1 PUSH2 0x19E0 JUMP JUMPDEST TIMESTAMP GT PUSH2 0xB68 JUMPI PUSH1 0x40 MLOAD PUSH32 0x8C379A000000000000000000000000000000000000000000000000000000000 DUP2 MSTORE PUSH1 0x4 ADD PUSH2 0xB5F SWAP1 PUSH2 0x1C10 JUMP JUMPDEST PUSH1 0x40 MLOAD DUP1 SWAP2 SUB SWAP1 REVERT JUMPDEST CALLER PUSH20 0xFFFFFFFFFFFFFFFFFFFFFFFFFFFFFFFFFFFFFFFF AND PUSH2 0x8FC SELFBALANCE SWAP1 DUP2 ISZERO MUL SWAP1 PUSH1 0x40 MLOAD PUSH1 0x0 PUSH1 0x40 MLOAD DUP1 DUP4 SUB DUP2 DUP6 DUP9 DUP9 CALL SWAP4 POP POP POP POP ISZERO DUP1 ISZERO PUSH2 0xBAE JUMPI RETURNDATASIZE PUSH1 0x0 DUP1 RETURNDATACOPY RETURNDATASIZE PUSH1 0x0 REVERT JUMPDEST POP JUMP JUMPDEST PUSH1 0x0 DUP1 PUSH1 0x0 DUP4 PUSH20 0xFFFFFFFFFFFFFFFFFFFFFFFFFFFFFFFFFFFFFFFF AND PUSH20 0xFFFFFFFFFFFFFFFFFFFFFFFFFFFFFFFFFFFFFFFF AND DUP2 MSTORE PUSH1 0x20 ADD SWAP1 DUP2 MSTORE PUSH1 0x20 ADD PUSH1 0x0 KECCAK256 SLOAD SWAP1 POP SWAP2 SWAP1 POP JUMP JUMPDEST PUSH2 0xC01 PUSH2 0x10D7 JUMP JUMPDEST PUSH2 0xC0B PUSH1 0x0 PUSH2 0x14DC JUMP JUMPDEST JUMP JUMPDEST PUSH1 0x0 PUSH1 0x6 PUSH1 0x0 SWAP1 SLOAD SWAP1 PUSH2 0x100 EXP SWAP1 DIV PUSH20 0xFFFFFFFFFFFFFFFFFFFFFFFFFFFFFFFFFFFFFFFF AND SWAP1 POP SWAP1 JUMP JUMPDEST PUSH4 0x64510403 DUP2 JUMP JUMPDEST PUSH1 0x60 PUSH1 0x4 DUP1 SLOAD PUSH2 0xC4E SWAP1 PUSH2 0x1980 JUMP JUMPDEST DUP1 PUSH1 0x1F ADD PUSH1 0x20 DUP1 SWAP2 DIV MUL PUSH1 0x20 ADD PUSH1 0x40 MLOAD SWAP1 DUP2 ADD PUSH1 0x40 MSTORE DUP1 SWAP3 SWAP2 SWAP1 DUP2 DUP2 MSTORE PUSH1 0x20 ADD DUP3 DUP1 SLOAD PUSH2 0xC7A SWAP1 PUSH2 0x1980 JUMP JUMPDEST DUP1 ISZERO PUSH2 0xCC7 JUMPI DUP1 PUSH1 0x1F LT PUSH2 0xC9C JUMPI PUSH2 0x100 DUP1 DUP4 SLOAD DIV MUL DUP4 MSTORE SWAP2 PUSH1 0x20 ADD SWAP2 PUSH2 0xCC7 JUMP JUMPDEST DUP3 ADD SWAP2 SWAP1 PUSH1 0x0 MSTORE PUSH1 0x20 PUSH1 0x0 KECCAK256 SWAP1 JUMPDEST DUP2 SLOAD DUP2 MSTORE SWAP1 PUSH1 0x1 ADD SWAP1 PUSH1 0x20 ADD DUP1 DUP4 GT PUSH2 0xCAA JUMPI DUP3 SWAP1 SUB PUSH1 0x1F AND DUP3 ADD SWAP2 JUMPDEST POP POP POP POP POP SWAP1 POP SWAP1 JUMP JUMPDEST PUSH1 0x0 DUP1 PUSH2 0xCDC PUSH2 0xF06 JUMP JUMPDEST SWAP1 POP PUSH1 0x0 PUSH2 0xCEA DUP3 DUP7 PUSH2 0xDFC JUMP JUMPDEST SWAP1 POP DUP4 DUP2 LT ISZERO PUSH2 0xD2F JUMPI PUSH1 0x40 MLOAD PUSH32 0x8C379A000000000000000000000000000000000000000000000000000000000 DUP2 MSTORE PUSH1 0x4 ADD PUSH2 0xD26 SWAP1 PUSH2 0x1CA2 JUMP JUMPDEST PUSH1 0x40 MLOAD DUP1 SWAP2 SUB SWAP1 REVERT JUMPDEST PUSH2 0xD3C DUP3 DUP7 DUP7 DUP5 SUB PUSH2 0xF0E JUMP JUMPDEST PUSH1 0x1 SWAP3 POP POP POP SWAP3 SWAP2 POP POP JUMP JUMPDEST PUSH1 0x0 DUP1 PUSH2 0xD53 PUSH2 0xF06 JUMP JUMPDEST SWAP1 POP PUSH2 0xD60 DUP2 DUP6 DUP6 PUSH2 0x11E1 JUMP JUMPDEST PUSH1 0x1 SWAP2 POP POP SWAP3 SWAP2 POP POP JUMP JUMPDEST PUSH2 0xD73 PUSH2 0x10D7 JUMP JUMPDEST PUSH3 0x93A80 PUSH4 0x64510403 PUSH2 0xD86 SWAP2 SWAP1 PUSH2 0x19E0 JUMP JUMPDEST TIMESTAMP GT PUSH2 0xDC7 JUMPI PUSH1 0x40 MLOAD PUSH32 0x8C379A000000000000000000000000000000000000000000000000000000000 DUP2 MSTORE PUSH1 0x4 ADD PUSH2 0xDBE SWAP1 PUSH2 0x1C10 JUMP JUMPDEST PUSH1 0x40 MLOAD DUP1 SWAP2 SUB SWAP1 REVERT JUMPDEST PUSH2 0xDE8 PUSH2 0xDD2 PUSH2 0xC0D JUMP JUMPDEST CALLER PUSH2 0xDE3 PUSH2 0xDDE PUSH2 0xC0D JUMP JUMPDEST PUSH2 0xBB1 JUMP JUMPDEST PUSH2 0x11E1 JUMP JUMPDEST JUMP JUMPDEST PUSH2 0xDF2 PUSH2 0x10D7 JUMP JUMPDEST DUP1 PUSH1 0x7 DUP2 SWAP1 SSTORE POP POP JUMP JUMPDEST PUSH1 0x0 PUSH1 0x1 PUSH1 0x0 DUP5 PUSH20 0xFFFFFFFFFFFFFFFFFFFFFFFFFFFFFFFFFFFFFFFF AND PUSH20 0xFFFFFFFFFFFFFFFFFFFFFFFFFFFFFFFFFFFFFFFF AND DUP2 MSTORE PUSH1 0x20 ADD SWAP1 DUP2 MSTORE PUSH1 0x20 ADD PUSH1 0x0 KECCAK256 PUSH1 0x0 DUP4 PUSH20 0xFFFFFFFFFFFFFFFFFFFFFFFFFFFFFFFFFFFFFFFF AND PUSH20 0xFFFFFFFFFFFFFFFFFFFFFFFFFFFFFFFFFFFFFFFF AND DUP2 MSTORE PUSH1 0x20 ADD SWAP1 DUP2 MSTORE PUSH1 0x20 ADD PUSH1 0x0 KECCAK256 SLOAD SWAP1 POP SWAP3 SWAP2 POP POP JUMP JUMPDEST PUSH2 0xE8B PUSH2 0x10D7 JUMP JUMPDEST PUSH1 0x0 PUSH20 0xFFFFFFFFFFFFFFFFFFFFFFFFFFFFFFFFFFFFFFFF AND DUP2 PUSH20 0xFFFFFFFFFFFFFFFFFFFFFFFFFFFFFFFFFFFFFFFF AND SUB PUSH2 0xEFA JUMPI PUSH1 0x40 MLOAD PUSH32 0x8C379A000000000000000000000000000000000000000000000000000000000 DUP2 MSTORE PUSH1 0x4 ADD PUSH2 0xEF1 SWAP1 PUSH2 0x1D34 JUMP JUMPDEST PUSH1 0x40 MLOAD DUP1 SWAP2 SUB SWAP1 REVERT JUMPDEST PUSH2 0xF03 DUP2 PUSH2 0x14DC JUMP JUMPDEST POP JUMP JUMPDEST PUSH1 0x0 CALLER SWAP1 POP SWAP1 JUMP JUMPDEST PUSH1 0x0 PUSH20 0xFFFFFFFFFFFFFFFFFFFFFFFFFFFFFFFFFFFFFFFF AND DUP4 PUSH20 0xFFFFFFFFFFFFFFFFFFFFFFFFFFFFFFFFFFFFFFFF AND SUB PUSH2 0xF7D JUMPI PUSH1 0x40 MLOAD PUSH32 0x8C379A000000000000000000000000000000000000000000000000000000000 DUP2 MSTORE PUSH1 0x4 ADD PUSH2 0xF74 SWAP1 PUSH2 0x1DC6 JUMP JUMPDEST PUSH1 0x40 MLOAD DUP1 SWAP2 SUB SWAP1 REVERT JUMPDEST PUSH1 0x0 PUSH20 0xFFFFFFFFFFFFFFFFFFFFFFFFFFFFFFFFFFFFFFFF AND DUP3 PUSH20 0xFFFFFFFFFFFFFFFFFFFFFFFFFFFFFFFFFFFFFFFF AND SUB PUSH2 0xFEC JUMPI PUSH1 0x40 MLOAD PUSH32 0x8C379A000000000000000000000000000000000000000000000000000000000 DUP2 MSTORE PUSH1 0x4 ADD PUSH2 0xFE3 SWAP1 PUSH2 0x1E58 JUMP JUMPDEST PUSH1 0x40 MLOAD DUP1 SWAP2 SUB SWAP1 REVERT JUMPDEST DUP1 PUSH1 0x1 PUSH1 0x0 DUP6 PUSH20 0xFFFFFFFFFFFFFFFFFFFFFFFFFFFFFFFFFFFFFFFF AND PUSH20 0xFFFFFFFFFFFFFFFFFFFFFFFFFFFFFFFFFFFFFFFF AND DUP2 MSTORE PUSH1 0x20 ADD SWAP1 DUP2 MSTORE PUSH1 0x20 ADD PUSH1 0x0 KECCAK256 PUSH1 0x0 DUP5 PUSH20 0xFFFFFFFFFFFFFFFFFFFFFFFFFFFFFFFFFFFFFFFF AND PUSH20 0xFFFFFFFFFFFFFFFFFFFFFFFFFFFFFFFFFFFFFFFF AND DUP2 MSTORE PUSH1 0x20 ADD SWAP1 DUP2 MSTORE PUSH1 0x20 ADD PUSH1 0x0 KECCAK256 DUP2 SWAP1 SSTORE POP DUP2 PUSH20 0xFFFFFFFFFFFFFFFFFFFFFFFFFFFFFFFFFFFFFFFF AND DUP4 PUSH20 0xFFFFFFFFFFFFFFFFFFFFFFFFFFFFFFFFFFFFFFFF AND PUSH32 0x8C5BE1E5EBEC7D5BD14F71427D1E84F3DD0314C0F7B2291E5B200AC8C7C3B925 DUP4 PUSH1 0x40 MLOAD PUSH2 0x10CA SWAP2 SWAP1 PUSH2 0x1815 JUMP JUMPDEST PUSH1 0x40 MLOAD DUP1 SWAP2 SUB SWAP1 LOG3 POP POP POP JUMP JUMPDEST PUSH2 0x10DF PUSH2 0xF06 JUMP JUMPDEST PUSH20 0xFFFFFFFFFFFFFFFFFFFFFFFFFFFFFFFFFFFFFFFF AND PUSH2 0x10FD PUSH2 0xC0D JUMP JUMPDEST PUSH20 0xFFFFFFFFFFFFFFFFFFFFFFFFFFFFFFFFFFFFFFFF AND EQ PUSH2 0x1153 JUMPI PUSH1 0x40 MLOAD PUSH32 0x8C379A000000000000000000000000000000000000000000000000000000000 DUP2 MSTORE PUSH1 0x4 ADD PUSH2 0x114A SWAP1 PUSH2 0x1EC4 JUMP JUMPDEST PUSH1 0x40 MLOAD DUP1 SWAP2 SUB SWAP1 REVERT JUMPDEST JUMP JUMPDEST PUSH1 0x0 PUSH2 0x1161 DUP5 DUP5 PUSH2 0xDFC JUMP JUMPDEST SWAP1 POP PUSH32 0xFFFFFFFFFFFFFFFFFFFFFFFFFFFFFFFFFFFFFFFFFFFFFFFFFFFFFFFFFFFFFFFF DUP2 EQ PUSH2 0x11DB JUMPI DUP2 DUP2 LT ISZERO PUSH2 0x11CD JUMPI PUSH1 0x40 MLOAD PUSH32 0x8C379A000000000000000000000000000000000000000000000000000000000 DUP2 MSTORE PUSH1 0x4 ADD PUSH2 0x11C4 SWAP1 PUSH2 0x1F30 JUMP JUMPDEST PUSH1 0x40 MLOAD DUP1 SWAP2 SUB SWAP1 REVERT JUMPDEST PUSH2 0x11DA DUP5 DUP5 DUP5 DUP5 SUB PUSH2 0xF0E JUMP JUMPDEST JUMPDEST POP POP POP POP JUMP JUMPDEST PUSH1 0x0 PUSH20 0xFFFFFFFFFFFFFFFFFFFFFFFFFFFFFFFFFFFFFFFF AND DUP4 PUSH20 0xFFFFFFFFFFFFFFFFFFFFFFFFFFFFFFFFFFFFFFFF AND SUB PUSH2 0x1250 JUMPI PUSH1 0x40 MLOAD PUSH32 0x8C379A000000000000000000000000000000000000000000000000000000000 DUP2 MSTORE PUSH1 0x4 ADD PUSH2 0x1247 SWAP1 PUSH2 0x1FC2 JUMP JUMPDEST PUSH1 0x40 MLOAD DUP1 SWAP2 SUB SWAP1 REVERT JUMPDEST PUSH1 0x0 PUSH20 0xFFFFFFFFFFFFFFFFFFFFFFFFFFFFFFFFFFFFFFFF AND DUP3 PUSH20 0xFFFFFFFFFFFFFFFFFFFFFFFFFFFFFFFFFFFFFFFF AND SUB PUSH2 0x12BF JUMPI PUSH1 0x40 MLOAD PUSH32 0x8C379A000000000000000000000000000000000000000000000000000000000 DUP2 MSTORE PUSH1 0x4 ADD PUSH2 0x12B6 SWAP1 PUSH2 0x2054 JUMP JUMPDEST PUSH1 0x40 MLOAD DUP1 SWAP2 SUB SWAP1 REVERT JUMPDEST PUSH2 0x12CA DUP4 DUP4 DUP4 PUSH2 0x15A2 JUMP JUMPDEST PUSH1 0x0 DUP1 PUSH1 0x0 DUP6 PUSH20 0xFFFFFFFFFFFFFFFFFFFFFFFFFFFFFFFFFFFFFFFF AND PUSH20 0xFFFFFFFFFFFFFFFFFFFFFFFFFFFFFFFFFFFFFFFF AND DUP2 MSTORE PUSH1 0x20 ADD SWAP1 DUP2 MSTORE PUSH1 0x20 ADD PUSH1 0x0 KECCAK256 SLOAD SWAP1 POP DUP2 DUP2 LT ISZERO PUSH2 0x1350 JUMPI PUSH1 0x40 MLOAD PUSH32 0x8C379A000000000000000000000000000000000000000000000000000000000 DUP2 MSTORE PUSH1 0x4 ADD PUSH2 0x1347 SWAP1 PUSH2 0x20E6 JUMP JUMPDEST PUSH1 0x40 MLOAD DUP1 SWAP2 SUB SWAP1 REVERT JUMPDEST DUP2 DUP2 SUB PUSH1 0x0 DUP1 DUP7 PUSH20 0xFFFFFFFFFFFFFFFFFFFFFFFFFFFFFFFFFFFFFFFF AND PUSH20 0xFFFFFFFFFFFFFFFFFFFFFFFFFFFFFFFFFFFFFFFF AND DUP2 MSTORE PUSH1 0x20 ADD SWAP1 DUP2 MSTORE PUSH1 0x20 ADD PUSH1 0x0 KECCAK256 DUP2 SWAP1 SSTORE POP DUP2 PUSH1 0x0 DUP1 DUP6 PUSH20 0xFFFFFFFFFFFFFFFFFFFFFFFFFFFFFFFFFFFFFFFF AND PUSH20 0xFFFFFFFFFFFFFFFFFFFFFFFFFFFFFFFFFFFFFFFF AND DUP2 MSTORE PUSH1 0x20 ADD SWAP1 DUP2 MSTORE PUSH1 0x20 ADD PUSH1 0x0 KECCAK256 PUSH1 0x0 DUP3 DUP3 SLOAD ADD SWAP3 POP POP DUP2 SWAP1 SSTORE POP DUP3 PUSH20 0xFFFFFFFFFFFFFFFFFFFFFFFFFFFFFFFFFFFFFFFF AND DUP5 PUSH20 0xFFFFFFFFFFFFFFFFFFFFFFFFFFFFFFFFFFFFFFFF AND PUSH32 0xDDF252AD1BE2C89B69C2B068FC378DAA952BA7F163C4A11628F55A4DF523B3EF DUP5 PUSH1 0x40 MLOAD PUSH2 0x143E SWAP2 SWAP1 PUSH2 0x1815 JUMP JUMPDEST PUSH1 0x40 MLOAD DUP1 SWAP2 SUB SWAP1 LOG3 PUSH2 0x1451 DUP5 DUP5 DUP5 PUSH2 0x15A7 JUMP JUMPDEST POP POP POP POP JUMP JUMPDEST PUSH1 0x2 PUSH1 0x5 SLOAD SUB PUSH2 0x149C JUMPI PUSH1 0x40 MLOAD PUSH32 0x8C379A000000000000000000000000000000000000000000000000000000000 DUP2 MSTORE PUSH1 0x4 ADD PUSH2 0x1493 SWAP1 PUSH2 0x2152 JUMP JUMPDEST PUSH1 0x40 MLOAD DUP1 SWAP2 SUB SWAP1 REVERT JUMPDEST PUSH1 0x2 PUSH1 0x5 DUP2 SWAP1 SSTORE POP JUMP JUMPDEST PUSH1 0x0 DUP2 DUP4 PUSH2 0x14B4 SWAP2 SWAP1 PUSH2 0x2172 JUMP JUMPDEST SWAP1 POP SWAP3 SWAP2 POP POP JUMP JUMPDEST PUSH1 0x0 DUP2 DUP4 PUSH2 0x14CA SWAP2 SWAP1 PUSH2 0x19E0 JUMP JUMPDEST SWAP1 POP SWAP3 SWAP2 POP POP JUMP JUMPDEST PUSH1 0x1 PUSH1 0x5 DUP2 SWAP1 SSTORE POP JUMP JUMPDEST PUSH1 0x0 PUSH1 0x6 PUSH1 0x0 SWAP1 SLOAD SWAP1 PUSH2 0x100 EXP SWAP1 DIV PUSH20 0xFFFFFFFFFFFFFFFFFFFFFFFFFFFFFFFFFFFFFFFF AND SWAP1 POP DUP2 PUSH1 0x6 PUSH1 0x0 PUSH2 0x100 EXP DUP2 SLOAD DUP2 PUSH20 0xFFFFFFFFFFFFFFFFFFFFFFFFFFFFFFFFFFFFFFFF MUL NOT AND SWAP1 DUP4 PUSH20 0xFFFFFFFFFFFFFFFFFFFFFFFFFFFFFFFFFFFFFFFF AND MUL OR SWAP1 SSTORE POP DUP2 PUSH20 0xFFFFFFFFFFFFFFFFFFFFFFFFFFFFFFFFFFFFFFFF AND DUP2 PUSH20 0xFFFFFFFFFFFFFFFFFFFFFFFFFFFFFFFFFFFFFFFF AND PUSH32 0x8BE0079C531659141344CD1FD0A4F28419497F9722A3DAAFE3B4186F6B6457E0 PUSH1 0x40 MLOAD PUSH1 0x40 MLOAD DUP1 SWAP2 SUB SWAP1 LOG3 POP POP JUMP JUMPDEST POP POP POP JUMP JUMPDEST POP POP POP JUMP JUMPDEST PUSH1 0x0 DUP1 REVERT JUMPDEST PUSH1 0x0 PUSH20 0xFFFFFFFFFFFFFFFFFFFFFFFFFFFFFFFFFFFFFFFF DUP3 AND SWAP1 POP SWAP2 SWAP1 POP JUMP JUMPDEST PUSH1 0x0 PUSH2 0x15DC DUP3 PUSH2 0x15B1 JUMP JUMPDEST SWAP1 POP SWAP2 SWAP1 POP JUMP JUMPDEST PUSH2 0x15EC DUP2 PUSH2 0x15D1 JUMP JUMPDEST DUP2 EQ PUSH2 0x15F7 JUMPI PUSH1 0x0 DUP1 REVERT JUMPDEST POP JUMP JUMPDEST PUSH1 0x0 DUP2 CALLDATALOAD SWAP1 POP PUSH2 0x1609 DUP2 PUSH2 0x15E3 JUMP JUMPDEST SWAP3 SWAP2 POP POP JUMP JUMPDEST PUSH1 0x0 PUSH1 0x20 DUP3 DUP5 SUB SLT ISZERO PUSH2 0x1625 JUMPI PUSH2 0x1624 PUSH2 0x15AC JUMP JUMPDEST JUMPDEST PUSH1 0x0 PUSH2 0x1633 DUP5 DUP3 DUP6 ADD PUSH2 0x15FA JUMP JUMPDEST SWAP2 POP POP SWAP3 SWAP2 POP POP JUMP JUMPDEST PUSH1 0x0 DUP2 ISZERO ISZERO SWAP1 POP SWAP2 SWAP1 POP JUMP JUMPDEST PUSH2 0x1651 DUP2 PUSH2 0x163C JUMP JUMPDEST DUP3 MSTORE POP POP JUMP JUMPDEST PUSH1 0x0 PUSH1 0x20 DUP3 ADD SWAP1 POP PUSH2 0x166C PUSH1 0x0 DUP4 ADD DUP5 PUSH2 0x1648 JUMP JUMPDEST SWAP3 SWAP2 POP POP JUMP JUMPDEST PUSH1 0x0 DUP2 MLOAD SWAP1 POP SWAP2 SWAP1 POP JUMP JUMPDEST PUSH1 0x0 DUP3 DUP3 MSTORE PUSH1 0x20 DUP3 ADD SWAP1 POP SWAP3 SWAP2 POP POP JUMP JUMPDEST PUSH1 0x0 JUMPDEST DUP4 DUP2 LT ISZERO PUSH2 0x16AC JUMPI DUP1 DUP3 ADD MLOAD DUP2 DUP5 ADD MSTORE PUSH1 0x20 DUP2 ADD SWAP1 POP PUSH2 0x1691 JUMP JUMPDEST PUSH1 0x0 DUP5 DUP5 ADD MSTORE POP POP POP POP JUMP JUMPDEST PUSH1 0x0 PUSH1 0x1F NOT PUSH1 0x1F DUP4 ADD AND SWAP1 POP SWAP2 SWAP1 POP JUMP JUMPDEST PUSH1 0x0 PUSH2 0x16D4 DUP3 PUSH2 0x1672 JUMP JUMPDEST PUSH2 0x16DE DUP2 DUP6 PUSH2 0x167D JUMP JUMPDEST SWAP4 POP PUSH2 0x16EE DUP2 DUP6 PUSH1 0x20 DUP7 ADD PUSH2 0x168E JUMP JUMPDEST PUSH2 0x16F7 DUP2 PUSH2 0x16B8 JUMP JUMPDEST DUP5 ADD SWAP2 POP POP SWAP3 SWAP2 POP POP JUMP JUMPDEST PUSH1 0x0 PUSH1 0x20 DUP3 ADD SWAP1 POP DUP2 DUP2 SUB PUSH1 0x0 DUP4 ADD MSTORE PUSH2 0x171C DUP2 DUP5 PUSH2 0x16C9 JUMP JUMPDEST SWAP1 POP SWAP3 SWAP2 POP POP JUMP JUMPDEST PUSH1 0x0 DUP2 SWAP1 POP SWAP2 SWAP1 POP JUMP JUMPDEST PUSH2 0x1737 DUP2 PUSH2 0x1724 JUMP JUMPDEST DUP2 EQ PUSH2 0x1742 JUMPI PUSH1 0x0 DUP1 REVERT JUMPDEST POP JUMP JUMPDEST PUSH1 0x0 DUP2 CALLDATALOAD SWAP1 POP PUSH2 0x1754 DUP2 PUSH2 0x172E JUMP JUMPDEST SWAP3 SWAP2 POP POP JUMP JUMPDEST PUSH1 0x0 DUP1 PUSH1 0x40 DUP4 DUP6 SUB SLT ISZERO PUSH2 0x1771 JUMPI PUSH2 0x1770 PUSH2 0x15AC JUMP JUMPDEST JUMPDEST PUSH1 0x0 PUSH2 0x177F DUP6 DUP3 DUP7 ADD PUSH2 0x15FA JUMP JUMPDEST SWAP3 POP POP PUSH1 0x20 PUSH2 0x1790 DUP6 DUP3 DUP7 ADD PUSH2 0x1745 JUMP JUMPDEST SWAP2 POP POP SWAP3 POP SWAP3 SWAP1 POP JUMP JUMPDEST PUSH2 0x17A3 DUP2 PUSH2 0x163C JUMP JUMPDEST DUP2 EQ PUSH2 0x17AE JUMPI PUSH1 0x0 DUP1 REVERT JUMPDEST POP JUMP JUMPDEST PUSH1 0x0 DUP2 CALLDATALOAD SWAP1 POP PUSH2 0x17C0 DUP2 PUSH2 0x179A JUMP JUMPDEST SWAP3 SWAP2 POP POP JUMP JUMPDEST PUSH1 0x0 DUP1 PUSH1 0x40 DUP4 DUP6 SUB SLT ISZERO PUSH2 0x17DD JUMPI PUSH2 0x17DC PUSH2 0x15AC JUMP JUMPDEST JUMPDEST PUSH1 0x0 PUSH2 0x17EB DUP6 DUP3 DUP7 ADD PUSH2 0x15FA JUMP JUMPDEST SWAP3 POP POP PUSH1 0x20 PUSH2 0x17FC DUP6 DUP3 DUP7 ADD PUSH2 0x17B1 JUMP JUMPDEST SWAP2 POP POP SWAP3 POP SWAP3 SWAP1 POP JUMP JUMPDEST PUSH2 0x180F DUP2 PUSH2 0x1724 JUMP JUMPDEST DUP3 MSTORE POP POP JUMP JUMPDEST PUSH1 0x0 PUSH1 0x20 DUP3 ADD SWAP1 POP PUSH2 0x182A PUSH1 0x0 DUP4 ADD DUP5 PUSH2 0x1806 JUMP JUMPDEST SWAP3 SWAP2 POP POP JUMP JUMPDEST PUSH1 0x0 DUP1 PUSH1 0x0 PUSH1 0x60 DUP5 DUP7 SUB SLT ISZERO PUSH2 0x1849 JUMPI PUSH2 0x1848 PUSH2 0x15AC JUMP JUMPDEST JUMPDEST PUSH1 0x0 PUSH2 0x1857 DUP7 DUP3 DUP8 ADD PUSH2 0x15FA JUMP JUMPDEST SWAP4 POP POP PUSH1 0x20 PUSH2 0x1868 DUP7 DUP3 DUP8 ADD PUSH2 0x15FA JUMP JUMPDEST SWAP3 POP POP PUSH1 0x40 PUSH2 0x1879 DUP7 DUP3 DUP8 ADD PUSH2 0x1745 JUMP JUMPDEST SWAP2 POP POP SWAP3 POP SWAP3 POP SWAP3 JUMP JUMPDEST PUSH1 0x0 PUSH1 0xFF DUP3 AND SWAP1 POP SWAP2 SWAP1 POP JUMP JUMPDEST PUSH2 0x1899 DUP2 PUSH2 0x1883 JUMP JUMPDEST DUP3 MSTORE POP POP JUMP JUMPDEST PUSH1 0x0 PUSH1 0x20 DUP3 ADD SWAP1 POP PUSH2 0x18B4 PUSH1 0x0 DUP4 ADD DUP5 PUSH2 0x1890 JUMP JUMPDEST SWAP3 SWAP2 POP POP JUMP JUMPDEST PUSH1 0x0 PUSH1 0x20 DUP3 DUP5 SUB SLT ISZERO PUSH2 0x18D0 JUMPI PUSH2 0x18CF PUSH2 0x15AC JUMP JUMPDEST JUMPDEST PUSH1 0x0 PUSH2 0x18DE DUP5 DUP3 DUP6 ADD PUSH2 0x1745 JUMP JUMPDEST SWAP2 POP POP SWAP3 SWAP2 POP POP JUMP JUMPDEST PUSH2 0x18F0 DUP2 PUSH2 0x15D1 JUMP JUMPDEST DUP3 MSTORE POP POP JUMP JUMPDEST PUSH1 0x0 PUSH1 0x20 DUP3 ADD SWAP1 POP PUSH2 0x190B PUSH1 0x0 DUP4 ADD DUP5 PUSH2 0x18E7 JUMP JUMPDEST SWAP3 SWAP2 POP POP JUMP JUMPDEST PUSH1 0x0 DUP1 PUSH1 0x40 DUP4 DUP6 SUB SLT ISZERO PUSH2 0x1928 JUMPI PUSH2 0x1927 PUSH2 0x15AC JUMP JUMPDEST JUMPDEST PUSH1 0x0 PUSH2 0x1936 DUP6 DUP3 DUP7 ADD PUSH2 0x15FA JUMP JUMPDEST SWAP3 POP POP PUSH1 0x20 PUSH2 0x1947 DUP6 DUP3 DUP7 ADD PUSH2 0x15FA JUMP JUMPDEST SWAP2 POP POP SWAP3 POP SWAP3 SWAP1 POP JUMP JUMPDEST PUSH32 0x4E487B7100000000000000000000000000000000000000000000000000000000 PUSH1 0x0 MSTORE PUSH1 0x22 PUSH1 0x4 MSTORE PUSH1 0x24 PUSH1 0x0 REVERT JUMPDEST PUSH1 0x0 PUSH1 0x2 DUP3 DIV SWAP1 POP PUSH1 0x1 DUP3 AND DUP1 PUSH2 0x1998 JUMPI PUSH1 0x7F DUP3 AND SWAP2 POP JUMPDEST PUSH1 0x20 DUP3 LT DUP2 SUB PUSH2 0x19AB JUMPI PUSH2 0x19AA PUSH2 0x1951 JUMP JUMPDEST JUMPDEST POP SWAP2 SWAP1 POP JUMP JUMPDEST PUSH32 0x4E487B7100000000000000000000000000000000000000000000000000000000 PUSH1 0x0 MSTORE PUSH1 0x11 PUSH1 0x4 MSTORE PUSH1 0x24 PUSH1 0x0 REVERT JUMPDEST PUSH1 0x0 PUSH2 0x19EB DUP3 PUSH2 0x1724 JUMP JUMPDEST SWAP2 POP PUSH2 0x19F6 DUP4 PUSH2 0x1724 JUMP JUMPDEST SWAP3 POP DUP3 DUP3 ADD SWAP1 POP DUP1 DUP3 GT ISZERO PUSH2 0x1A0E JUMPI PUSH2 0x1A0D PUSH2 0x19B1 JUMP JUMPDEST JUMPDEST SWAP3 SWAP2 POP POP JUMP JUMPDEST PUSH32 0x53616C65206E6F74206163746976650000000000000000000000000000000000 PUSH1 0x0 DUP3 ADD MSTORE POP JUMP JUMPDEST PUSH1 0x0 PUSH2 0x1A4A PUSH1 0xF DUP4 PUSH2 0x167D JUMP JUMPDEST SWAP2 POP PUSH2 0x1A55 DUP3 PUSH2 0x1A14 JUMP JUMPDEST PUSH1 0x20 DUP3 ADD SWAP1 POP SWAP2 SWAP1 POP JUMP JUMPDEST PUSH1 0x0 PUSH1 0x20 DUP3 ADD SWAP1 POP DUP2 DUP2 SUB PUSH1 0x0 DUP4 ADD MSTORE PUSH2 0x1A79 DUP2 PUSH2 0x1A3D JUMP JUMPDEST SWAP1 POP SWAP2 SWAP1 POP JUMP JUMPDEST PUSH32 0x4E6F742077686974656C69737465640000000000000000000000000000000000 PUSH1 0x0 DUP3 ADD MSTORE POP JUMP JUMPDEST PUSH1 0x0 PUSH2 0x1AB6 PUSH1 0xF DUP4 PUSH2 0x167D JUMP JUMPDEST SWAP2 POP PUSH2 0x1AC1 DUP3 PUSH2 0x1A80 JUMP JUMPDEST PUSH1 0x20 DUP3 ADD SWAP1 POP SWAP2 SWAP1 POP JUMP JUMPDEST PUSH1 0x0 PUSH1 0x20 DUP3 ADD SWAP1 POP DUP2 DUP2 SUB PUSH1 0x0 DUP4 ADD MSTORE PUSH2 0x1AE5 DUP2 PUSH2 0x1AA9 JUMP JUMPDEST SWAP1 POP SWAP2 SWAP1 POP JUMP JUMPDEST PUSH32 0x4D7573742073656E642045746865720000000000000000000000000000000000 PUSH1 0x0 DUP3 ADD MSTORE POP JUMP JUMPDEST PUSH1 0x0 PUSH2 0x1B22 PUSH1 0xF DUP4 PUSH2 0x167D JUMP JUMPDEST SWAP2 POP PUSH2 0x1B2D DUP3 PUSH2 0x1AEC JUMP JUMPDEST PUSH1 0x20 DUP3 ADD SWAP1 POP SWAP2 SWAP1 POP JUMP JUMPDEST PUSH1 0x0 PUSH1 0x20 DUP3 ADD SWAP1 POP DUP2 DUP2 SUB PUSH1 0x0 DUP4 ADD MSTORE PUSH2 0x1B51 DUP2 PUSH2 0x1B15 JUMP JUMPDEST SWAP1 POP SWAP2 SWAP1 POP JUMP JUMPDEST PUSH32 0x45786365656473206D6178207075726368617365206C696D6974000000000000 PUSH1 0x0 DUP3 ADD MSTORE POP JUMP JUMPDEST PUSH1 0x0 PUSH2 0x1B8E PUSH1 0x1A DUP4 PUSH2 0x167D JUMP JUMPDEST SWAP2 POP PUSH2 0x1B99 DUP3 PUSH2 0x1B58 JUMP JUMPDEST PUSH1 0x20 DUP3 ADD SWAP1 POP SWAP2 SWAP1 POP JUMP JUMPDEST PUSH1 0x0 PUSH1 0x20 DUP3 ADD SWAP1 POP DUP2 DUP2 SUB PUSH1 0x0 DUP4 ADD MSTORE PUSH2 0x1BBD DUP2 PUSH2 0x1B81 JUMP JUMPDEST SWAP1 POP SWAP2 SWAP1 POP JUMP JUMPDEST PUSH32 0x53616C65206E6F7420656E646564207965740000000000000000000000000000 PUSH1 0x0 DUP3 ADD MSTORE POP JUMP JUMPDEST PUSH1 0x0 PUSH2 0x1BFA PUSH1 0x12 DUP4 PUSH2 0x167D JUMP JUMPDEST SWAP2 POP PUSH2 0x1C05 DUP3 PUSH2 0x1BC4 JUMP JUMPDEST PUSH1 0x20 DUP3 ADD SWAP1 POP SWAP2 SWAP1 POP JUMP JUMPDEST PUSH1 0x0 PUSH1 0x20 DUP3 ADD SWAP1 POP DUP2 DUP2 SUB PUSH1 0x0 DUP4 ADD MSTORE PUSH2 0x1C29 DUP2 PUSH2 0x1BED JUMP JUMPDEST SWAP1 POP SWAP2 SWAP1 POP JUMP JUMPDEST PUSH32 0x45524332303A2064656372656173656420616C6C6F77616E63652062656C6F77 PUSH1 0x0 DUP3 ADD MSTORE PUSH32 0x207A65726F000000000000000000000000000000000000000000000000000000 PUSH1 0x20 DUP3 ADD MSTORE POP JUMP JUMPDEST PUSH1 0x0 PUSH2 0x1C8C PUSH1 0x25 DUP4 PUSH2 0x167D JUMP JUMPDEST SWAP2 POP PUSH2 0x1C97 DUP3 PUSH2 0x1C30 JUMP JUMPDEST PUSH1 0x40 DUP3 ADD SWAP1 POP SWAP2 SWAP1 POP JUMP JUMPDEST PUSH1 0x0 PUSH1 0x20 DUP3 ADD SWAP1 POP DUP2 DUP2 SUB PUSH1 0x0 DUP4 ADD MSTORE PUSH2 0x1CBB DUP2 PUSH2 0x1C7F JUMP JUMPDEST SWAP1 POP SWAP2 SWAP1 POP JUMP JUMPDEST PUSH32 0x4F776E61626C653A206E6577206F776E657220697320746865207A65726F2061 PUSH1 0x0 DUP3 ADD MSTORE PUSH32 0x6464726573730000000000000000000000000000000000000000000000000000 PUSH1 0x20 DUP3 ADD MSTORE POP JUMP JUMPDEST PUSH1 0x0 PUSH2 0x1D1E PUSH1 0x26 DUP4 PUSH2 0x167D JUMP JUMPDEST SWAP2 POP PUSH2 0x1D29 DUP3 PUSH2 0x1CC2 JUMP JUMPDEST PUSH1 0x40 DUP3 ADD SWAP1 POP SWAP2 SWAP1 POP JUMP JUMPDEST PUSH1 0x0 PUSH1 0x20 DUP3 ADD SWAP1 POP DUP2 DUP2 SUB PUSH1 0x0 DUP4 ADD MSTORE PUSH2 0x1D4D DUP2 PUSH2 0x1D11 JUMP JUMPDEST SWAP1 POP SWAP2 SWAP1 POP JUMP JUMPDEST PUSH32 0x45524332303A20617070726F76652066726F6D20746865207A65726F20616464 PUSH1 0x0 DUP3 ADD MSTORE PUSH32 0x7265737300000000000000000000000000000000000000000000000000000000 PUSH1 0x20 DUP3 ADD MSTORE POP JUMP JUMPDEST PUSH1 0x0 PUSH2 0x1DB0 PUSH1 0x24 DUP4 PUSH2 0x167D JUMP JUMPDEST SWAP2 POP PUSH2 0x1DBB DUP3 PUSH2 0x1D54 JUMP JUMPDEST PUSH1 0x40 DUP3 ADD SWAP1 POP SWAP2 SWAP1 POP JUMP JUMPDEST PUSH1 0x0 PUSH1 0x20 DUP3 ADD SWAP1 POP DUP2 DUP2 SUB PUSH1 0x0 DUP4 ADD MSTORE PUSH2 0x1DDF DUP2 PUSH2 0x1DA3 JUMP JUMPDEST SWAP1 POP SWAP2 SWAP1 POP JUMP JUMPDEST PUSH32 0x45524332303A20617070726F766520746F20746865207A65726F206164647265 PUSH1 0x0 DUP3 ADD MSTORE PUSH32 0x7373000000000000000000000000000000000000000000000000000000000000 PUSH1 0x20 DUP3 ADD MSTORE POP JUMP JUMPDEST PUSH1 0x0 PUSH2 0x1E42 PUSH1 0x22 DUP4 PUSH2 0x167D JUMP JUMPDEST SWAP2 POP PUSH2 0x1E4D DUP3 PUSH2 0x1DE6 JUMP JUMPDEST PUSH1 0x40 DUP3 ADD SWAP1 POP SWAP2 SWAP1 POP JUMP JUMPDEST PUSH1 0x0 PUSH1 0x20 DUP3 ADD SWAP1 POP DUP2 DUP2 SUB PUSH1 0x0 DUP4 ADD MSTORE PUSH2 0x1E71 DUP2 PUSH2 0x1E35 JUMP JUMPDEST SWAP1 POP SWAP2 SWAP1 POP JUMP JUMPDEST PUSH32 0x4F776E61626C653A2063616C6C6572206973206E6F7420746865206F776E6572 PUSH1 0x0 DUP3 ADD MSTORE POP JUMP JUMPDEST PUSH1 0x0 PUSH2 0x1EAE PUSH1 0x20 DUP4 PUSH2 0x167D JUMP JUMPDEST SWAP2 POP PUSH2 0x1EB9 DUP3 PUSH2 0x1E78 JUMP JUMPDEST PUSH1 0x20 DUP3 ADD SWAP1 POP SWAP2 SWAP1 POP JUMP JUMPDEST PUSH1 0x0 PUSH1 0x20 DUP3 ADD SWAP1 POP DUP2 DUP2 SUB PUSH1 0x0 DUP4 ADD MSTORE PUSH2 0x1EDD DUP2 PUSH2 0x1EA1 JUMP JUMPDEST SWAP1 POP SWAP2 SWAP1 POP JUMP JUMPDEST PUSH32 0x45524332303A20696E73756666696369656E7420616C6C6F77616E6365000000 PUSH1 0x0 DUP3 ADD MSTORE POP JUMP JUMPDEST PUSH1 0x0 PUSH2 0x1F1A PUSH1 0x1D DUP4 PUSH2 0x167D JUMP JUMPDEST SWAP2 POP PUSH2 0x1F25 DUP3 PUSH2 0x1EE4 JUMP JUMPDEST PUSH1 0x20 DUP3 ADD SWAP1 POP SWAP2 SWAP1 POP JUMP JUMPDEST PUSH1 0x0 PUSH1 0x20 DUP3 ADD SWAP1 POP DUP2 DUP2 SUB PUSH1 0x0 DUP4 ADD MSTORE PUSH2 0x1F49 DUP2 PUSH2 0x1F0D JUMP JUMPDEST SWAP1 POP SWAP2 SWAP1 POP JUMP JUMPDEST PUSH32 0x45524332303A207472616E736665722066726F6D20746865207A65726F206164 PUSH1 0x0 DUP3 ADD MSTORE PUSH32 0x6472657373000000000000000000000000000000000000000000000000000000 PUSH1 0x20 DUP3 ADD MSTORE POP JUMP JUMPDEST PUSH1 0x0 PUSH2 0x1FAC PUSH1 0x25 DUP4 PUSH2 0x167D JUMP JUMPDEST SWAP2 POP PUSH2 0x1FB7 DUP3 PUSH2 0x1F50 JUMP JUMPDEST PUSH1 0x40 DUP3 ADD SWAP1 POP SWAP2 SWAP1 POP JUMP JUMPDEST PUSH1 0x0 PUSH1 0x20 DUP3 ADD SWAP1 POP DUP2 DUP2 SUB PUSH1 0x0 DUP4 ADD MSTORE PUSH2 0x1FDB DUP2 PUSH2 0x1F9F JUMP JUMPDEST SWAP1 POP SWAP2 SWAP1 POP JUMP JUMPDEST PUSH32 0x45524332303A207472616E7366657220746F20746865207A65726F2061646472 PUSH1 0x0 DUP3 ADD MSTORE PUSH32 0x6573730000000000000000000000000000000000000000000000000000000000 PUSH1 0x20 DUP3 ADD MSTORE POP JUMP JUMPDEST PUSH1 0x0 PUSH2 0x203E PUSH1 0x23 DUP4 PUSH2 0x167D JUMP JUMPDEST SWAP2 POP PUSH2 0x2049 DUP3 PUSH2 0x1FE2 JUMP JUMPDEST PUSH1 0x40 DUP3 ADD SWAP1 POP SWAP2 SWAP1 POP JUMP JUMPDEST PUSH1 0x0 PUSH1 0x20 DUP3 ADD SWAP1 POP DUP2 DUP2 SUB PUSH1 0x0 DUP4 ADD MSTORE PUSH2 0x206D DUP2 PUSH2 0x2031 JUMP JUMPDEST SWAP1 POP SWAP2 SWAP1 POP JUMP JUMPDEST PUSH32 0x45524332303A207472616E7366657220616D6F756E7420657863656564732062 PUSH1 0x0 DUP3 ADD MSTORE PUSH32 0x616C616E63650000000000000000000000000000000000000000000000000000 PUSH1 0x20 DUP3 ADD MSTORE POP JUMP JUMPDEST PUSH1 0x0 PUSH2 0x20D0 PUSH1 0x26 DUP4 PUSH2 0x167D JUMP JUMPDEST SWAP2 POP PUSH2 0x20DB DUP3 PUSH2 0x2074 JUMP JUMPDEST PUSH1 0x40 DUP3 ADD SWAP1 POP SWAP2 SWAP1 POP JUMP JUMPDEST PUSH1 0x0 PUSH1 0x20 DUP3 ADD SWAP1 POP DUP2 DUP2 SUB PUSH1 0x0 DUP4 ADD MSTORE PUSH2 0x20FF DUP2 PUSH2 0x20C3 JUMP JUMPDEST SWAP1 POP SWAP2 SWAP1 POP JUMP JUMPDEST PUSH32 0x5265656E7472616E637947756172643A207265656E7472616E742063616C6C00 PUSH1 0x0 DUP3 ADD MSTORE POP JUMP JUMPDEST PUSH1 0x0 PUSH2 0x213C PUSH1 0x1F DUP4 PUSH2 0x167D JUMP JUMPDEST SWAP2 POP PUSH2 0x2147 DUP3 PUSH2 0x2106 JUMP JUMPDEST PUSH1 0x20 DUP3 ADD SWAP1 POP SWAP2 SWAP1 POP JUMP JUMPDEST PUSH1 0x0 PUSH1 0x20 DUP3 ADD SWAP1 POP DUP2 DUP2 SUB PUSH1 0x0 DUP4 ADD MSTORE PUSH2 0x216B DUP2 PUSH2 0x212F JUMP JUMPDEST SWAP1 POP SWAP2 SWAP1 POP JUMP JUMPDEST PUSH1 0x0 PUSH2 0x217D DUP3 PUSH2 0x1724 JUMP JUMPDEST SWAP2 POP PUSH2 0x2188 DUP4 PUSH2 0x1724 JUMP JUMPDEST SWAP3 POP DUP3 DUP3 MUL PUSH2 0x2196 DUP2 PUSH2 0x1724 JUMP JUMPDEST SWAP2 POP DUP3 DUP3 DIV DUP5 EQ DUP4 ISZERO OR PUSH2 0x21AD JUMPI PUSH2 0x21AC PUSH2 0x19B1 JUMP JUMPDEST JUMPDEST POP SWAP3 SWAP2 POP POP JUMP INVALID LOG2 PUSH5 0x6970667358 0x22 SLT KECCAK256 BYTE 0xD6 0xAA PUSH23 0xB4B5E5C40F636F9B4FD850ED4EFD4C2C9154F1DF44E47F PUSH22 0x51D17CE764736F6C6343000813003300000000000000 "
		},
		"gasEstimates": {
			"creation": {
				"codeDepositCost": "1736400",
				"executionCost": "infinite",
				"totalCost": "infinite"
			},
			"external": {
				"SALE_END_TIMESTAMP()": "infinite",
				"SALE_START_TIMESTAMP()": "462",
				"allowance(address,address)": "infinite",
				"approve(address,uint256)": "infinite",
				"balanceOf(address)": "2908",
				"decimals()": "433",
				"decreaseAllowance(address,uint256)": "infinite",
				"exchange_rate()": "2541",
				"increaseAllowance(address,uint256)": "infinite",
				"max_purchase_limit()": "2497",
				"name()": "infinite",
				"owner()": "2633",
				"purchase()": "infinite",
				"purchasedAmount(address)": "2903",
				"renounceOwnership()": "30487",
				"setExchangeRate(uint256)": "24850",
				"setMaxPurchaseLimit(uint256)": "24895",
				"symbol()": "infinite",
				"totalSupply()": "2571",
				"transfer(address,uint256)": "infinite",
				"transferFrom(address,address,uint256)": "infinite",
				"transferOwnership(address)": "30854",
				"updateWhitelist(address,bool)": "infinite",
				"whitelistedAddresses(address)": "2869",
				"withdrawRemainingEther()": "infinite",
				"withdrawUnsoldTokens()": "infinite"
			}
		},
		"methodIdentifiers": {
			"SALE_END_TIMESTAMP()": "4210830d",
			"SALE_START_TIMESTAMP()": "946807fd",
			"allowance(address,address)": "dd62ed3e",
			"approve(address,uint256)": "095ea7b3",
			"balanceOf(address)": "70a08231",
			"decimals()": "313ce567",
			"decreaseAllowance(address,uint256)": "a457c2d7",
			"exchange_rate()": "171ef0b2",
			"increaseAllowance(address,uint256)": "39509351",
			"max_purchase_limit()": "24f3772c",
			"name()": "06fdde03",
			"owner()": "8da5cb5b",
			"purchase()": "64edfbf0",
			"purchasedAmount(address)": "44c4dcc1",
			"renounceOwnership()": "715018a6",
			"setExchangeRate(uint256)": "db068e0e",
			"setMaxPurchaseLimit(uint256)": "45e313aa",
			"symbol()": "95d89b41",
			"totalSupply()": "18160ddd",
			"transfer(address,uint256)": "a9059cbb",
			"transferFrom(address,address,uint256)": "23b872dd",
			"transferOwnership(address)": "f2fde38b",
			"updateWhitelist(address,bool)": "0d392cd9",
			"whitelistedAddresses(address)": "06c933d8",
			"withdrawRemainingEther()": "67d398b1",
			"withdrawUnsoldTokens()": "c8bdbfb6"
		}
	},
	"abi": [
		{
			"inputs": [],
			"stateMutability": "nonpayable",
			"type": "constructor"
		},
		{
			"anonymous": false,
			"inputs": [
				{
					"indexed": true,
					"internalType": "address",
					"name": "owner",
					"type": "address"
				},
				{
					"indexed": true,
					"internalType": "address",
					"name": "spender",
					"type": "address"
				},
				{
					"indexed": false,
					"internalType": "uint256",
					"name": "value",
					"type": "uint256"
				}
			],
			"name": "Approval",
			"type": "event"
		},
		{
			"anonymous": false,
			"inputs": [
				{
					"indexed": true,
					"internalType": "address",
					"name": "previousOwner",
					"type": "address"
				},
				{
					"indexed": true,
					"internalType": "address",
					"name": "newOwner",
					"type": "address"
				}
			],
			"name": "OwnershipTransferred",
			"type": "event"
		},
		{
			"anonymous": false,
			"inputs": [
				{
					"indexed": true,
					"internalType": "address",
					"name": "from",
					"type": "address"
				},
				{
					"indexed": true,
					"internalType": "address",
					"name": "to",
					"type": "address"
				},
				{
					"indexed": false,
					"internalType": "uint256",
					"name": "value",
					"type": "uint256"
				}
			],
			"name": "Transfer",
			"type": "event"
		},
		{
			"anonymous": false,
			"inputs": [
				{
					"indexed": true,
					"internalType": "address",
					"name": "account",
					"type": "address"
				},
				{
					"indexed": false,
					"internalType": "bool",
					"name": "isWhitelisted",
					"type": "bool"
				}
			],
			"name": "WhitelistUpdated",
			"type": "event"
		},
		{
			"inputs": [],
			"name": "SALE_END_TIMESTAMP",
			"outputs": [
				{
					"internalType": "uint256",
					"name": "",
					"type": "uint256"
				}
			],
			"stateMutability": "view",
			"type": "function"
		},
		{
			"inputs": [],
			"name": "SALE_START_TIMESTAMP",
			"outputs": [
				{
					"internalType": "uint256",
					"name": "",
					"type": "uint256"
				}
			],
			"stateMutability": "view",
			"type": "function"
		},
		{
			"inputs": [
				{
					"internalType": "address",
					"name": "owner",
					"type": "address"
				},
				{
					"internalType": "address",
					"name": "spender",
					"type": "address"
				}
			],
			"name": "allowance",
			"outputs": [
				{
					"internalType": "uint256",
					"name": "",
					"type": "uint256"
				}
			],
			"stateMutability": "view",
			"type": "function"
		},
		{
			"inputs": [
				{
					"internalType": "address",
					"name": "spender",
					"type": "address"
				},
				{
					"internalType": "uint256",
					"name": "amount",
					"type": "uint256"
				}
			],
			"name": "approve",
			"outputs": [
				{
					"internalType": "bool",
					"name": "",
					"type": "bool"
				}
			],
			"stateMutability": "nonpayable",
			"type": "function"
		},
		{
			"inputs": [
				{
					"internalType": "address",
					"name": "account",
					"type": "address"
				}
			],
			"name": "balanceOf",
			"outputs": [
				{
					"internalType": "uint256",
					"name": "",
					"type": "uint256"
				}
			],
			"stateMutability": "view",
			"type": "function"
		},
		{
			"inputs": [],
			"name": "decimals",
			"outputs": [
				{
					"internalType": "uint8",
					"name": "",
					"type": "uint8"
				}
			],
			"stateMutability": "view",
			"type": "function"
		},
		{
			"inputs": [
				{
					"internalType": "address",
					"name": "spender",
					"type": "address"
				},
				{
					"internalType": "uint256",
					"name": "subtractedValue",
					"type": "uint256"
				}
			],
			"name": "decreaseAllowance",
			"outputs": [
				{
					"internalType": "bool",
					"name": "",
					"type": "bool"
				}
			],
			"stateMutability": "nonpayable",
			"type": "function"
		},
		{
			"inputs": [],
			"name": "exchange_rate",
			"outputs": [
				{
					"internalType": "uint256",
					"name": "",
					"type": "uint256"
				}
			],
			"stateMutability": "view",
			"type": "function"
		},
		{
			"inputs": [
				{
					"internalType": "address",
					"name": "spender",
					"type": "address"
				},
				{
					"internalType": "uint256",
					"name": "addedValue",
					"type": "uint256"
				}
			],
			"name": "increaseAllowance",
			"outputs": [
				{
					"internalType": "bool",
					"name": "",
					"type": "bool"
				}
			],
			"stateMutability": "nonpayable",
			"type": "function"
		},
		{
			"inputs": [],
			"name": "max_purchase_limit",
			"outputs": [
				{
					"internalType": "uint256",
					"name": "",
					"type": "uint256"
				}
			],
			"stateMutability": "view",
			"type": "function"
		},
		{
			"inputs": [],
			"name": "name",
			"outputs": [
				{
					"internalType": "string",
					"name": "",
					"type": "string"
				}
			],
			"stateMutability": "view",
			"type": "function"
		},
		{
			"inputs": [],
			"name": "owner",
			"outputs": [
				{
					"internalType": "address",
					"name": "",
					"type": "address"
				}
			],
			"stateMutability": "view",
			"type": "function"
		},
		{
			"inputs": [],
			"name": "purchase",
			"outputs": [],
			"stateMutability": "payable",
			"type": "function"
		},
		{
			"inputs": [
				{
					"internalType": "address",
					"name": "",
					"type": "address"
				}
			],
			"name": "purchasedAmount",
			"outputs": [
				{
					"internalType": "uint256",
					"name": "",
					"type": "uint256"
				}
			],
			"stateMutability": "view",
			"type": "function"
		},
		{
			"inputs": [],
			"name": "renounceOwnership",
			"outputs": [],
			"stateMutability": "nonpayable",
			"type": "function"
		},
		{
			"inputs": [
				{
					"internalType": "uint256",
					"name": "_exchange_rate",
					"type": "uint256"
				}
			],
			"name": "setExchangeRate",
			"outputs": [],
			"stateMutability": "nonpayable",
			"type": "function"
		},
		{
			"inputs": [
				{
					"internalType": "uint256",
					"name": "_max_purchase_limit",
					"type": "uint256"
				}
			],
			"name": "setMaxPurchaseLimit",
			"outputs": [],
			"stateMutability": "nonpayable",
			"type": "function"
		},
		{
			"inputs": [],
			"name": "symbol",
			"outputs": [
				{
					"internalType": "string",
					"name": "",
					"type": "string"
				}
			],
			"stateMutability": "view",
			"type": "function"
		},
		{
			"inputs": [],
			"name": "totalSupply",
			"outputs": [
				{
					"internalType": "uint256",
					"name": "",
					"type": "uint256"
				}
			],
			"stateMutability": "view",
			"type": "function"
		},
		{
			"inputs": [
				{
					"internalType": "address",
					"name": "to",
					"type": "address"
				},
				{
					"internalType": "uint256",
					"name": "amount",
					"type": "uint256"
				}
			],
			"name": "transfer",
			"outputs": [
				{
					"internalType": "bool",
					"name": "",
					"type": "bool"
				}
			],
			"stateMutability": "nonpayable",
			"type": "function"
		},
		{
			"inputs": [
				{
					"internalType": "address",
					"name": "from",
					"type": "address"
				},
				{
					"internalType": "address",
					"name": "to",
					"type": "address"
				},
				{
					"internalType": "uint256",
					"name": "amount",
					"type": "uint256"
				}
			],
			"name": "transferFrom",
			"outputs": [
				{
					"internalType": "bool",
					"name": "",
					"type": "bool"
				}
			],
			"stateMutability": "nonpayable",
			"type": "function"
		},
		{
			"inputs": [
				{
					"internalType": "address",
					"name": "newOwner",
					"type": "address"
				}
			],
			"name": "transferOwnership",
			"outputs": [],
			"stateMutability": "nonpayable",
			"type": "function"
		},
		{
			"inputs": [
				{
					"internalType": "address",
					"name": "_account",
					"type": "address"
				},
				{
					"internalType": "bool",
					"name": "_isWhitelisted",
					"type": "bool"
				}
			],
			"name": "updateWhitelist",
			"outputs": [],
			"stateMutability": "nonpayable",
			"type": "function"
		},
		{
			"inputs": [
				{
					"internalType": "address",
					"name": "",
					"type": "address"
				}
			],
			"name": "whitelistedAddresses",
			"outputs": [
				{
					"internalType": "bool",
					"name": "",
					"type": "bool"
				}
			],
			"stateMutability": "view",
			"type": "function"
		},
		{
			"inputs": [],
			"name": "withdrawRemainingEther",
			"outputs": [],
			"stateMutability": "nonpayable",
			"type": "function"
		},
		{
			"inputs": [],
			"name": "withdrawUnsoldTokens",
			"outputs": [],
			"stateMutability": "nonpayable",
			"type": "function"
		}
	]
}